{
  "_format": "hh-sol-artifact-1",
  "contractName": "Advertise",
  "sourceName": "contracts/Advertise.sol",
  "abi": [
    {
      "inputs": [],
      "stateMutability": "nonpayable",
      "type": "constructor"
    },
    {
      "inputs": [
        {
          "internalType": "uint256",
          "name": "",
          "type": "uint256"
        },
        {
          "internalType": "uint256",
          "name": "",
          "type": "uint256"
        }
      ],
      "name": "Ads",
      "outputs": [
        {
          "internalType": "uint256",
          "name": "id",
          "type": "uint256"
        },
        {
          "internalType": "address",
          "name": "adOwner",
          "type": "address"
        },
        {
          "internalType": "uint32",
          "name": "tag",
          "type": "uint32"
        },
        {
          "internalType": "string",
          "name": "title",
          "type": "string"
        },
        {
          "internalType": "string",
          "name": "content",
          "type": "string"
        },
        {
          "internalType": "uint256",
          "name": "timestamp",
          "type": "uint256"
        },
        {
          "internalType": "uint256",
          "name": "impressions",
          "type": "uint256"
        },
        {
          "internalType": "uint256",
          "name": "remainingViewsPaidFor",
          "type": "uint256"
        }
      ],
      "stateMutability": "view",
      "type": "function"
    },
    {
      "inputs": [
        {
          "internalType": "uint256",
          "name": "",
          "type": "uint256"
        }
      ],
      "name": "Tags",
      "outputs": [
        {
          "internalType": "string",
          "name": "",
          "type": "string"
        }
      ],
      "stateMutability": "view",
      "type": "function"
    },
    {
      "inputs": [],
      "name": "adsCount",
      "outputs": [
        {
          "internalType": "uint256",
          "name": "",
          "type": "uint256"
        }
      ],
      "stateMutability": "view",
      "type": "function"
    },
    {
      "inputs": [],
      "name": "balanceOf",
      "outputs": [
        {
          "internalType": "uint256",
          "name": "",
          "type": "uint256"
        }
      ],
      "stateMutability": "view",
      "type": "function"
    },
    {
      "inputs": [],
      "name": "deposit",
      "outputs": [],
      "stateMutability": "payable",
      "type": "function"
    },
    {
      "inputs": [
        {
          "internalType": "uint256",
          "name": "valueEther",
          "type": "uint256"
        }
      ],
      "name": "etherToGWei",
      "outputs": [
        {
          "internalType": "uint256",
          "name": "",
          "type": "uint256"
        }
      ],
      "stateMutability": "pure",
      "type": "function"
    },
    {
      "inputs": [
        {
          "internalType": "uint256",
          "name": "valueEther",
          "type": "uint256"
        }
      ],
      "name": "etherToWei",
      "outputs": [
        {
          "internalType": "uint256",
          "name": "",
          "type": "uint256"
        }
      ],
      "stateMutability": "pure",
      "type": "function"
    },
    {
      "inputs": [],
      "name": "fetchAllTags",
      "outputs": [
        {
          "internalType": "string[]",
          "name": "",
          "type": "string[]"
        }
      ],
      "stateMutability": "view",
      "type": "function"
    },
    {
      "inputs": [
        {
          "internalType": "uint256",
          "name": "tag",
          "type": "uint256"
        },
        {
          "internalType": "uint256",
          "name": "id",
          "type": "uint256"
        }
      ],
      "name": "fundAd",
      "outputs": [],
      "stateMutability": "payable",
      "type": "function"
    },
    {
      "inputs": [
        {
          "internalType": "uint256",
          "name": "tag",
          "type": "uint256"
        },
        {
          "internalType": "uint256",
          "name": "id",
          "type": "uint256"
        }
      ],
      "name": "getAdByID",
      "outputs": [
        {
          "components": [
            {
              "internalType": "uint256",
              "name": "id",
              "type": "uint256"
            },
            {
              "internalType": "address",
              "name": "adOwner",
              "type": "address"
            },
            {
              "internalType": "uint32",
              "name": "tag",
              "type": "uint32"
            },
            {
              "internalType": "string",
              "name": "title",
              "type": "string"
            },
            {
              "internalType": "string",
              "name": "content",
              "type": "string"
            },
            {
              "internalType": "uint256",
              "name": "timestamp",
              "type": "uint256"
            },
            {
              "internalType": "uint256",
              "name": "impressions",
              "type": "uint256"
            },
            {
              "internalType": "uint256",
              "name": "remainingViewsPaidFor",
              "type": "uint256"
            }
          ],
          "internalType": "struct Advertise.Ad",
          "name": "",
          "type": "tuple"
        }
      ],
      "stateMutability": "view",
      "type": "function"
    },
    {
      "inputs": [
        {
          "internalType": "uint32[]",
          "name": "tags",
          "type": "uint32[]"
        }
      ],
      "name": "getRandAdByTag",
      "outputs": [
        {
          "components": [
            {
              "internalType": "uint256",
              "name": "id",
              "type": "uint256"
            },
            {
              "internalType": "address",
              "name": "adOwner",
              "type": "address"
            },
            {
              "internalType": "uint32",
              "name": "tag",
              "type": "uint32"
            },
            {
              "internalType": "string",
              "name": "title",
              "type": "string"
            },
            {
              "internalType": "string",
              "name": "content",
              "type": "string"
            },
            {
              "internalType": "uint256",
              "name": "timestamp",
              "type": "uint256"
            },
            {
              "internalType": "uint256",
              "name": "impressions",
              "type": "uint256"
            },
            {
              "internalType": "uint256",
              "name": "remainingViewsPaidFor",
              "type": "uint256"
            }
          ],
          "internalType": "struct Advertise.Ad",
          "name": "",
          "type": "tuple"
        }
      ],
      "stateMutability": "nonpayable",
      "type": "function"
    },
    {
      "inputs": [
        {
          "internalType": "uint256",
          "name": "valueGwei",
          "type": "uint256"
        }
      ],
      "name": "gweiToEther",
      "outputs": [
        {
          "internalType": "uint256",
          "name": "",
          "type": "uint256"
        }
      ],
      "stateMutability": "pure",
      "type": "function"
    },
    {
      "inputs": [
        {
          "internalType": "uint256",
          "name": "valueGwei",
          "type": "uint256"
        }
      ],
      "name": "gweiToWei",
      "outputs": [
        {
          "internalType": "uint256",
          "name": "",
          "type": "uint256"
        }
      ],
      "stateMutability": "pure",
      "type": "function"
    },
    {
      "inputs": [
        {
          "internalType": "uint32",
          "name": "tag",
          "type": "uint32"
        },
        {
          "internalType": "string",
          "name": "title",
          "type": "string"
        },
        {
          "internalType": "string",
          "name": "content",
          "type": "string"
        }
      ],
      "name": "makeNewAd",
      "outputs": [],
      "stateMutability": "nonpayable",
      "type": "function"
    },
    {
      "inputs": [
        {
          "internalType": "uint256",
          "name": "valueWei",
          "type": "uint256"
        }
      ],
      "name": "weiToEther",
      "outputs": [
        {
          "internalType": "uint256",
          "name": "",
          "type": "uint256"
        }
      ],
      "stateMutability": "pure",
      "type": "function"
    },
    {
      "inputs": [
        {
          "internalType": "uint256",
          "name": "valueWei",
          "type": "uint256"
        }
      ],
      "name": "weiToGwei",
      "outputs": [
        {
          "internalType": "uint256",
          "name": "",
          "type": "uint256"
        }
      ],
      "stateMutability": "pure",
      "type": "function"
    }
  ],
  "bytecode": "0x6080604052600060015560006002553480156200001b57600080fd5b50336000806101000a81548173ffffffffffffffffffffffffffffffffffffffff021916908373ffffffffffffffffffffffffffffffffffffffff1602179055506200006c6200007260201b60201c565b62000d60565b620000b86040518060400160405280600981526020017f456475636174696f6e00000000000000000000000000000000000000000000008152506200033460201b60201c565b620000fe6040518060400160405280600781526020017f46617368696f6e000000000000000000000000000000000000000000000000008152506200033460201b60201c565b620001446040518060400160405280600681526020017f53706f72747300000000000000000000000000000000000000000000000000008152506200033460201b60201c565b6200018a6040518060400160405280600a81526020017f4170706c69616e636573000000000000000000000000000000000000000000008152506200033460201b60201c565b620001f460006040518060400160405280600b81526020017f42494a5520456454656368000000000000000000000000000000000000000000815250610258600a60405180610140016040528061011f81526020016200356261011f91396200045e60201b60201c565b6200025e60016040518060400160405280600981526020017f537461726c696768740000000000000000000000000000000000000000000000815250611770600f60405180610140016040528061010f81526020016200345361010f91396200045e60201b60201c565b620002c960026040518060400160405280600b81526020017f4b68696c6c6120426174730000000000000000000000000000000000000000008152506201117060c860405180610180016040528061015081526020016200368161015091396200045e60201b60201c565b6200033260026040518060400160405280600881526020017f437269635374617200000000000000000000000000000000000000000000000081525060c8600260405180610180016040528061014681526020016200330d61014691396200045e60201b60201c565b565b600080600190505b6001548163ffffffff161015620003e657826040516020016200036091906200079f565b6040516020818303038152906040528051906020012060038263ffffffff1681548110620003935762000392620007b8565b5b90600052602060002001604051602001620003af9190620008ef565b6040516020818303038152906040528051906020012003620003d057600191505b8080620003dd9062000947565b9150506200033c565b50806200045a5760038290806001815401808255809150506001900390600052602060002001600090919091909150908162000423919062000b6e565b5060006004600060015481526020019081526020016000208190555060016000815480929190620004549062000c55565b91905055505b5050565b620004718585836200052a60201b60201c565b82600560008763ffffffff16815260200190815260200160002060006001600460008a63ffffffff16815260200190815260200160002054620004b5919062000ca2565b81526020019081526020016000206005018190555081600560008763ffffffff16815260200190815260200160002060006001600460008a63ffffffff168152602001908152602001600020546200050e919062000ca2565b8152602001908152602001600020600601819055505050505050565b6001548363ffffffff1610801562000549575060008363ffffffff1610155b6200058b576040517f08c379a0000000000000000000000000000000000000000000000000000000008152600401620005829062000d3e565b60405180910390fd5b60405180610100016040528060025481526020013373ffffffffffffffffffffffffffffffffffffffff1681526020018463ffffffff168152602001838152602001828152602001428152602001600081526020016000815250600560008563ffffffff1681526020019081526020016000206000600460008763ffffffff16815260200190815260200160002060008154809291906200062c9062000c55565b9190505581526020019081526020016000206000820151816000015560208201518160010160006101000a81548173ffffffffffffffffffffffffffffffffffffffff021916908373ffffffffffffffffffffffffffffffffffffffff16021790555060408201518160010160146101000a81548163ffffffff021916908363ffffffff1602179055506060820151816002019081620006cd919062000b6e565b506080820151816003019081620006e5919062000b6e565b5060a0820151816004015560c0820151816005015560e08201518160060155905050600260008154809291906200071c9062000c55565b9190505550505050565b600081519050919050565b600081905092915050565b60005b838110156200075c5780820151818401526020810190506200073f565b60008484015250505050565b6000620007758262000726565b62000781818562000731565b9350620007938185602086016200073c565b80840191505092915050565b6000620007ad828462000768565b915081905092915050565b7f4e487b7100000000000000000000000000000000000000000000000000000000600052603260045260246000fd5b7f4e487b7100000000000000000000000000000000000000000000000000000000600052602260045260246000fd5b600060028204905060018216806200082f57607f821691505b602082108103620008455762000844620007e7565b5b50919050565b60008190508160005260206000209050919050565b600081546200086f8162000816565b6200087b818662000731565b94506001821660008114620008995760018114620008af57620008e6565b60ff1983168652811515820286019350620008e6565b620008ba856200084b565b60005b83811015620008de57815481890152600182019150602081019050620008bd565b838801955050505b50505092915050565b6000620008fd828462000860565b915081905092915050565b7f4e487b7100000000000000000000000000000000000000000000000000000000600052601160045260246000fd5b600063ffffffff82169050919050565b6000620009548262000937565b915063ffffffff82036200096d576200096c62000908565b5b600182019050919050565b7f4e487b7100000000000000000000000000000000000000000000000000000000600052604160045260246000fd5b60006020601f8301049050919050565b600082821b905092915050565b600060088302620009f67fffffffffffffffffffffffffffffffffffffffffffffffffffffffffffffffff82620009b7565b62000a028683620009b7565b95508019841693508086168417925050509392505050565b6000819050919050565b6000819050919050565b600062000a4f62000a4962000a438462000a1a565b62000a24565b62000a1a565b9050919050565b6000819050919050565b62000a6b8362000a2e565b62000a8362000a7a8262000a56565b848454620009c4565b825550505050565b600090565b62000a9a62000a8b565b62000aa781848462000a60565b505050565b5b8181101562000acf5762000ac360008262000a90565b60018101905062000aad565b5050565b601f82111562000b1e5762000ae8816200084b565b62000af384620009a7565b8101602085101562000b03578190505b62000b1b62000b1285620009a7565b83018262000aac565b50505b505050565b600082821c905092915050565b600062000b436000198460080262000b23565b1980831691505092915050565b600062000b5e838362000b30565b9150826002028217905092915050565b62000b798262000726565b67ffffffffffffffff81111562000b955762000b9462000978565b5b62000ba1825462000816565b62000bae82828562000ad3565b600060209050601f83116001811462000be6576000841562000bd1578287015190505b62000bdd858262000b50565b86555062000c4d565b601f19841662000bf6866200084b565b60005b8281101562000c205784890151825560018201915060208501945060208101905062000bf9565b8683101562000c40578489015162000c3c601f89168262000b30565b8355505b6001600288020188555050505b505050505050565b600062000c628262000a1a565b91507fffffffffffffffffffffffffffffffffffffffffffffffffffffffffffffffff820362000c975762000c9662000908565b5b600182019050919050565b600062000caf8262000a1a565b915062000cbc8362000a1a565b925082820390508181111562000cd75762000cd662000908565b5b92915050565b600082825260208201905092915050565b7f54616720496e76616c6964000000000000000000000000000000000000000000600082015250565b600062000d26600b8362000cdd565b915062000d338262000cee565b602082019050919050565b6000602082019050818103600083015262000d598162000d17565b9050919050565b61259d8062000d706000396000f3fe6080604052600436106100f35760003560e01c80638a61f4fb1161008a578063d0eff89111610059578063d0eff89114610336578063d8916bb914610373578063eb96beae146103b0578063f1b3e716146103f4576100f3565b80638a61f4fb146102875780638dfd0b03146102c45780638e6f8c1814610301578063d0e30db01461032c576100f3565b806362a14b55116100c657806362a14b55146101b7578063722713f7146101e25780637803f6621461020d578063790ea3c61461024a576100f3565b806309913a98146100f857806323c3d2ec1461011457806338392d4f146101515780635a15feb91461018e575b600080fd5b610112600480360381019061010d9190611627565b610431565b005b34801561012057600080fd5b5061013b600480360381019061013691906117fc565b61062a565b60405161014891906119da565b60405180910390f35b34801561015d57600080fd5b50610178600480360381019061017391906119fc565b610c61565b6040516101859190611a73565b60405180910390f35b34801561019a57600080fd5b506101b560048036038101906101b09190611b4a565b610d0d565b005b3480156101c357600080fd5b506101cc610efd565b6040516101d99190611c97565b60405180910390f35b3480156101ee57600080fd5b506101f7610fd6565b6040516102049190611cc8565b60405180910390f35b34801561021957600080fd5b50610234600480360381019061022f91906119fc565b610fde565b6040516102419190611cc8565b60405180910390f35b34801561025657600080fd5b50610271600480360381019061026c9190611627565b610ff7565b60405161027e91906119da565b60405180910390f35b34801561029357600080fd5b506102ae60048036038101906102a991906119fc565b61135a565b6040516102bb9190611cc8565b60405180910390f35b3480156102d057600080fd5b506102eb60048036038101906102e691906119fc565b611373565b6040516102f89190611cc8565b60405180910390f35b34801561030d57600080fd5b5061031661138c565b6040516103239190611cc8565b60405180910390f35b610334611392565b005b34801561034257600080fd5b5061035d600480360381019061035891906119fc565b611394565b60405161036a9190611cc8565b60405180910390f35b34801561037f57600080fd5b5061039a600480360381019061039591906119fc565b6113b1565b6040516103a79190611cc8565b60405180910390f35b3480156103bc57600080fd5b506103d760048036038101906103d29190611627565b6113ce565b6040516103eb989796959493929190611d01565b60405180910390f35b34801561040057600080fd5b5061041b600480360381019061041691906119fc565b611563565b6040516104289190611cc8565b60405180910390f35b60015482108015610443575060008210155b610482576040517f08c379a000000000000000000000000000000000000000000000000000000000815260040161047990611dd9565b60405180910390fd5b806004600084815260200190815260200160002054116104d7576040517f08c379a00000000000000000000000000000000000000000000000000000000081526004016104ce90611e45565b60405180910390fd5b3373ffffffffffffffffffffffffffffffffffffffff1660056000848152602001908152602001600020600083815260200190815260200160002060010160009054906101000a900473ffffffffffffffffffffffffffffffffffffffff1673ffffffffffffffffffffffffffffffffffffffff161461058c576040517f08c379a000000000000000000000000000000000000000000000000000000000815260040161058390611eb1565b60405180910390fd5b60016105973461135a565b10156105d8576040517f08c379a00000000000000000000000000000000000000000000000000000000081526004016105cf90611f1d565b60405180910390fd5b6105e0611392565b6105e93461135a565b600560008481526020019081526020016000206000838152602001908152602001600020600601600082825461061f9190611f6c565b925050819055505050565b61063261157c565b60005b82518163ffffffff1610156106f457600154838263ffffffff16815181106106605761065f611fa0565b5b602002602001015163ffffffff161080156106a257506000838263ffffffff168151811061069157610690611fa0565b5b602002602001015163ffffffff1610155b6106e1576040517f08c379a00000000000000000000000000000000000000000000000000000000081526004016106d89061201b565b60405180910390fd5b80806106ec9061203b565b915050610635565b506000825142443360405160200161070e939291906120d0565b6040516020818303038152906040528051906020012060001c610731919061213c565b63ffffffff169050600083828151811061074e5761074d611fa0565b5b602002602001015163ffffffff16905060008060006040518061010001604052806000815260200160008054906101000a900473ffffffffffffffffffffffffffffffffffffffff1673ffffffffffffffffffffffffffffffffffffffff168152602001600063ffffffff1681526020016040518060400160405280600981526020017f436865636b6d6174650000000000000000000000000000000000000000000000815250815260200160405180606001604052806038815260200161253060389139815260200142815260200160008152602001600081525090505b8115801561083b5750865183105b15610c54575b865183108015610864575060006004600086815260200190815260200160002054145b156108ba5786516001866108789190611f6c565b610882919061213c565b945086858151811061089757610896611fa0565b5b602002602001015163ffffffff16935082806108b29061216d565b935050610841565b8651831015610c5457600060046000868152602001908152602001600020544244336040516020016108ee939291906120d0565b6040516020818303038152906040528051906020012060001c610911919061213c565b905060005b600460008781526020019081526020016000205481108015610936575083155b15610c24576000600560008881526020019081526020016000206000848152602001908152602001600020600601541115610be4576001935060056000878152602001908152602001600020600083815260200190815260200160002060405180610100016040529081600082015481526020016001820160009054906101000a900473ffffffffffffffffffffffffffffffffffffffff1673ffffffffffffffffffffffffffffffffffffffff1673ffffffffffffffffffffffffffffffffffffffff1681526020016001820160149054906101000a900463ffffffff1663ffffffff1663ffffffff168152602001600282018054610a35906121e4565b80601f0160208091040260200160405190810160405280929190818152602001828054610a61906121e4565b8015610aae5780601f10610a8357610100808354040283529160200191610aae565b820191906000526020600020905b815481529060010190602001808311610a9157829003601f168201915b50505050508152602001600382018054610ac7906121e4565b80601f0160208091040260200160405190810160405280929190818152602001828054610af3906121e4565b8015610b405780601f10610b1557610100808354040283529160200191610b40565b820191906000526020600020905b815481529060010190602001808311610b2357829003601f168201915b50505050508152602001600482015481526020016005820154815260200160068201548152505092506005600087815260200190815260200160002060008381526020019081526020016000206005016000815480929190610ba19061216d565b91905055506005600087815260200190815260200160002060008381526020019081526020016000206006016000815480929190610bde90612215565b91905055505b6004600087815260200190815260200160002054600183610c059190611f6c565b610c0f919061213c565b91508080610c1c9061216d565b915050610916565b508751600187610c349190611f6c565b610c3e919061213c565b95508380610c4b9061216d565b9450505061082d565b8095505050505050919050565b60038181548110610c7157600080fd5b906000526020600020016000915090508054610c8c906121e4565b80601f0160208091040260200160405190810160405280929190818152602001828054610cb8906121e4565b8015610d055780601f10610cda57610100808354040283529160200191610d05565b820191906000526020600020905b815481529060010190602001808311610ce857829003601f168201915b505050505081565b6001548363ffffffff16108015610d2b575060008363ffffffff1610155b610d6a576040517f08c379a0000000000000000000000000000000000000000000000000000000008152600401610d6190611dd9565b60405180910390fd5b60405180610100016040528060025481526020013373ffffffffffffffffffffffffffffffffffffffff1681526020018463ffffffff168152602001838152602001828152602001428152602001600081526020016000815250600560008563ffffffff1681526020019081526020016000206000600460008763ffffffff1681526020019081526020016000206000815480929190610e099061216d565b9190505581526020019081526020016000206000820151816000015560208201518160010160006101000a81548173ffffffffffffffffffffffffffffffffffffffff021916908373ffffffffffffffffffffffffffffffffffffffff16021790555060408201518160010160146101000a81548163ffffffff021916908363ffffffff1602179055506060820151816002019081610ea891906123ea565b506080820151816003019081610ebe91906123ea565b5060a0820151816004015560c0820151816005015560e0820151816006015590505060026000815480929190610ef39061216d565b9190505550505050565b60606003805480602002602001604051908101604052809291908181526020016000905b82821015610fcd578382906000526020600020018054610f40906121e4565b80601f0160208091040260200160405190810160405280929190818152602001828054610f6c906121e4565b8015610fb95780601f10610f8e57610100808354040283529160200191610fb9565b820191906000526020600020905b815481529060010190602001808311610f9c57829003601f168201915b505050505081526020019060010190610f21565b50505050905090565b600047905090565b6000633b9aca0082610ff091906124bc565b9050919050565b610fff61157c565b60015483108015611011575060008310155b611050576040517f08c379a000000000000000000000000000000000000000000000000000000000815260040161104790611dd9565b60405180910390fd5b816004600085815260200190815260200160002054116110a5576040517f08c379a000000000000000000000000000000000000000000000000000000000815260040161109c90611e45565b60405180910390fd5b3373ffffffffffffffffffffffffffffffffffffffff1660056000858152602001908152602001600020600084815260200190815260200160002060010160009054906101000a900473ffffffffffffffffffffffffffffffffffffffff1673ffffffffffffffffffffffffffffffffffffffff161461115a576040517f08c379a000000000000000000000000000000000000000000000000000000000815260040161115190611eb1565b60405180910390fd5b60056000848152602001908152602001600020600083815260200190815260200160002060405180610100016040529081600082015481526020016001820160009054906101000a900473ffffffffffffffffffffffffffffffffffffffff1673ffffffffffffffffffffffffffffffffffffffff1673ffffffffffffffffffffffffffffffffffffffff1681526020016001820160149054906101000a900463ffffffff1663ffffffff1663ffffffff168152602001600282018054611220906121e4565b80601f016020809104026020016040519081016040528092919081815260200182805461124c906121e4565b80156112995780601f1061126e57610100808354040283529160200191611299565b820191906000526020600020905b81548152906001019060200180831161127c57829003601f168201915b505050505081526020016003820180546112b2906121e4565b80601f01602080910402602001604051908101604052809291908181526020018280546112de906121e4565b801561132b5780601f106113005761010080835404028352916020019161132b565b820191906000526020600020905b81548152906001019060200180831161130e57829003601f168201915b505050505081526020016004820154815260200160058201548152602001600682015481525050905092915050565b6000633b9aca008261136c91906124bc565b9050919050565b6000633b9aca008261138591906124ed565b9050919050565b60025481565b565b6000670de0b6b3a7640000826113aa91906124bc565b9050919050565b6000670de0b6b3a7640000826113c791906124ed565b9050919050565b6005602052816000526040600020602052806000526040600020600091509150508060000154908060010160009054906101000a900473ffffffffffffffffffffffffffffffffffffffff16908060010160149054906101000a900463ffffffff1690806002018054611440906121e4565b80601f016020809104026020016040519081016040528092919081815260200182805461146c906121e4565b80156114b95780601f1061148e576101008083540402835291602001916114b9565b820191906000526020600020905b81548152906001019060200180831161149c57829003601f168201915b5050505050908060030180546114ce906121e4565b80601f01602080910402602001604051908101604052809291908181526020018280546114fa906121e4565b80156115475780601f1061151c57610100808354040283529160200191611547565b820191906000526020600020905b81548152906001019060200180831161152a57829003601f168201915b5050505050908060040154908060050154908060060154905088565b6000633b9aca008261157591906124ed565b9050919050565b60405180610100016040528060008152602001600073ffffffffffffffffffffffffffffffffffffffff168152602001600063ffffffff16815260200160608152602001606081526020016000815260200160008152602001600081525090565b6000604051905090565b600080fd5b600080fd5b6000819050919050565b611604816115f1565b811461160f57600080fd5b50565b600081359050611621816115fb565b92915050565b6000806040838503121561163e5761163d6115e7565b5b600061164c85828601611612565b925050602061165d85828601611612565b9150509250929050565b600080fd5b6000601f19601f8301169050919050565b7f4e487b7100000000000000000000000000000000000000000000000000000000600052604160045260246000fd5b6116b58261166c565b810181811067ffffffffffffffff821117156116d4576116d361167d565b5b80604052505050565b60006116e76115dd565b90506116f382826116ac565b919050565b600067ffffffffffffffff8211156117135761171261167d565b5b602082029050602081019050919050565b600080fd5b600063ffffffff82169050919050565b61174281611729565b811461174d57600080fd5b50565b60008135905061175f81611739565b92915050565b6000611778611773846116f8565b6116dd565b9050808382526020820190506020840283018581111561179b5761179a611724565b5b835b818110156117c457806117b08882611750565b84526020840193505060208101905061179d565b5050509392505050565b600082601f8301126117e3576117e2611667565b5b81356117f3848260208601611765565b91505092915050565b600060208284031215611812576118116115e7565b5b600082013567ffffffffffffffff8111156118305761182f6115ec565b5b61183c848285016117ce565b91505092915050565b61184e816115f1565b82525050565b600073ffffffffffffffffffffffffffffffffffffffff82169050919050565b600061187f82611854565b9050919050565b61188f81611874565b82525050565b61189e81611729565b82525050565b600081519050919050565b600082825260208201905092915050565b60005b838110156118de5780820151818401526020810190506118c3565b60008484015250505050565b60006118f5826118a4565b6118ff81856118af565b935061190f8185602086016118c0565b6119188161166c565b840191505092915050565b60006101008301600083015161193c6000860182611845565b50602083015161194f6020860182611886565b5060408301516119626040860182611895565b506060830151848203606086015261197a82826118ea565b9150506080830151848203608086015261199482826118ea565b91505060a08301516119a960a0860182611845565b5060c08301516119bc60c0860182611845565b5060e08301516119cf60e0860182611845565b508091505092915050565b600060208201905081810360008301526119f48184611923565b905092915050565b600060208284031215611a1257611a116115e7565b5b6000611a2084828501611612565b91505092915050565b600082825260208201905092915050565b6000611a45826118a4565b611a4f8185611a29565b9350611a5f8185602086016118c0565b611a688161166c565b840191505092915050565b60006020820190508181036000830152611a8d8184611a3a565b905092915050565b600080fd5b600067ffffffffffffffff821115611ab557611ab461167d565b5b611abe8261166c565b9050602081019050919050565b82818337600083830152505050565b6000611aed611ae884611a9a565b6116dd565b905082815260208101848484011115611b0957611b08611a95565b5b611b14848285611acb565b509392505050565b600082601f830112611b3157611b30611667565b5b8135611b41848260208601611ada565b91505092915050565b600080600060608486031215611b6357611b626115e7565b5b6000611b7186828701611750565b935050602084013567ffffffffffffffff811115611b9257611b916115ec565b5b611b9e86828701611b1c565b925050604084013567ffffffffffffffff811115611bbf57611bbe6115ec565b5b611bcb86828701611b1c565b9150509250925092565b600081519050919050565b600082825260208201905092915050565b6000819050602082019050919050565b6000611c0d83836118ea565b905092915050565b6000602082019050919050565b6000611c2d82611bd5565b611c378185611be0565b935083602082028501611c4985611bf1565b8060005b85811015611c855784840389528151611c668582611c01565b9450611c7183611c15565b925060208a01995050600181019050611c4d565b50829750879550505050505092915050565b60006020820190508181036000830152611cb18184611c22565b905092915050565b611cc2816115f1565b82525050565b6000602082019050611cdd6000830184611cb9565b92915050565b611cec81611874565b82525050565b611cfb81611729565b82525050565b600061010082019050611d17600083018b611cb9565b611d24602083018a611ce3565b611d316040830189611cf2565b8181036060830152611d438188611a3a565b90508181036080830152611d578187611a3a565b9050611d6660a0830186611cb9565b611d7360c0830185611cb9565b611d8060e0830184611cb9565b9998505050505050505050565b7f54616720496e76616c6964000000000000000000000000000000000000000000600082015250565b6000611dc3600b83611a29565b9150611dce82611d8d565b602082019050919050565b60006020820190508181036000830152611df281611db6565b9050919050565b7f4164206e6f7420666f756e640000000000000000000000000000000000000000600082015250565b6000611e2f600c83611a29565b9150611e3a82611df9565b602082019050919050565b60006020820190508181036000830152611e5e81611e22565b9050919050565b7f596f7520617265206e6f7420746865204164206f776e65720000000000000000600082015250565b6000611e9b601883611a29565b9150611ea682611e65565b602082019050919050565b60006020820190508181036000830152611eca81611e8e565b9050919050565b7f496e73756666696369656e7420616d6f756e7400000000000000000000000000600082015250565b6000611f07601383611a29565b9150611f1282611ed1565b602082019050919050565b60006020820190508181036000830152611f3681611efa565b9050919050565b7f4e487b7100000000000000000000000000000000000000000000000000000000600052601160045260246000fd5b6000611f77826115f1565b9150611f82836115f1565b9250828201905080821115611f9a57611f99611f3d565b5b92915050565b7f4e487b7100000000000000000000000000000000000000000000000000000000600052603260045260246000fd5b7f496e76616c696420746167730000000000000000000000000000000000000000600082015250565b6000612005600c83611a29565b915061201082611fcf565b602082019050919050565b6000602082019050818103600083015261203481611ff8565b9050919050565b600061204682611729565b915063ffffffff820361205c5761205b611f3d565b5b600182019050919050565b6000819050919050565b61208261207d826115f1565b612067565b82525050565b60008160601b9050919050565b60006120a082612088565b9050919050565b60006120b282612095565b9050919050565b6120ca6120c582611874565b6120a7565b82525050565b60006120dc8286612071565b6020820191506120ec8285612071565b6020820191506120fc82846120b9565b601482019150819050949350505050565b7f4e487b7100000000000000000000000000000000000000000000000000000000600052601260045260246000fd5b6000612147826115f1565b9150612152836115f1565b9250826121625761216161210d565b5b828206905092915050565b6000612178826115f1565b91507fffffffffffffffffffffffffffffffffffffffffffffffffffffffffffffffff82036121aa576121a9611f3d565b5b600182019050919050565b7f4e487b7100000000000000000000000000000000000000000000000000000000600052602260045260246000fd5b600060028204905060018216806121fc57607f821691505b60208210810361220f5761220e6121b5565b5b50919050565b6000612220826115f1565b91506000820361223357612232611f3d565b5b600182039050919050565b60008190508160005260206000209050919050565b60006020601f8301049050919050565b600082821b905092915050565b6000600883026122a07fffffffffffffffffffffffffffffffffffffffffffffffffffffffffffffffff82612263565b6122aa8683612263565b95508019841693508086168417925050509392505050565b6000819050919050565b60006122e76122e26122dd846115f1565b6122c2565b6115f1565b9050919050565b6000819050919050565b612301836122cc565b61231561230d826122ee565b848454612270565b825550505050565b600090565b61232a61231d565b6123358184846122f8565b505050565b5b818110156123595761234e600082612322565b60018101905061233b565b5050565b601f82111561239e5761236f8161223e565b61237884612253565b81016020851015612387578190505b61239b61239385612253565b83018261233a565b50505b505050565b600082821c905092915050565b60006123c1600019846008026123a3565b1980831691505092915050565b60006123da83836123b0565b9150826002028217905092915050565b6123f3826118a4565b67ffffffffffffffff81111561240c5761240b61167d565b5b61241682546121e4565b61242182828561235d565b600060209050601f8311600181146124545760008415612442578287015190505b61244c85826123ce565b8655506124b4565b601f1984166124628661223e565b60005b8281101561248a57848901518255600182019150602085019450602081019050612465565b868310156124a757848901516124a3601f8916826123b0565b8355505b6001600288020188555050505b505050505050565b60006124c7826115f1565b91506124d2836115f1565b9250826124e2576124e161210d565b5b828204905092915050565b60006124f8826115f1565b9150612503836115f1565b9250828202612511816115f1565b9150828204841483151761252857612527611f3d565b5b509291505056fe5468616e6b20666f72207573696e6720436865636b6d6174652e20506c656173652068656c70207573207769746820646f6e6174696f6e73a2646970667358221220c02daa1111842be585f5c1ebb0b7619e4a544d28d5aa96f1c2df57e3d6e61a5264736f6c634300081100333c696d67207372633d2268747470733a2f2f6f6f68746f6461792e636f6d2f77702d636f6e74656e742f75706c6f6164732f323031392f30342f6e6574666c69782d73686170696e672d7468652d6675747572652d6f662d656e7465727461696e6d656e742d666972652e6a706722206a73616374696f6e3d226c6f61643a5841655a6b643b22206a736e616d653d224869615976662220636c6173733d226e33564e4362204b416c5244622220616c743d2242616c616e63696e67204e6574666c69787320436f6d6d69746d656e7420746f20746865204f7574646f6f72204164766572746973696e6720427573696e65737320204f4f482020544f4441592220646174612d6e6f6166743d223122207374796c653d2277696474683a20313030253b206865696768743a203234362e36393270783b206d617267696e3a203070783b223e3c696d67207372633d2268747470733a2f2f6b696e7374612e636f6d2f77702d636f6e74656e742f75706c6f6164732f323032302f30352f6d63646f6e616c64732d62616e6e65722d6578616d706c652e706e6722206a73616374696f6e3d226c6f61643a5841655a6b643b22206a736e616d653d224869615976662220636c6173733d226e33564e4362204b416c5244622220616c743d2242616e6e65722041642053697a65733a20416c6c20596f75204e65656420746f204b6e6f77202220646174612d6e6f6166743d223122207374796c653d2277696474683a20313030253b206865696768743a203137342e30323370783b206d617267696e3a2031352e383838337078203070783b223e3c696d67207372633d2268747470733a2f2f7777772e776f726473747265616d2e636f6d2f77702d636f6e74656e742f75706c6f6164732f323032312f30372f706572737561736976652d6164732d636f63612d636f6c612e6a706722206a73616374696f6e3d226c6f61643a5841655a6b643b22206a736e616d653d224869615976662220636c6173733d226e33564e4362204b416c5244622220616c743d223720436f73742d45666665637469766520416420547970657320666f7220536d616c6c20427573696e65737365732220646174612d6e6f6166743d223122207374796c653d2277696474683a20313030253b206865696768743a203139352e39373270783b206d617267696e3a20342e39313338397078203070783b223e3c696d67207372633d2268747470733a2f2f63646e2e736561726368656e67696e656a6f75726e616c2e636f6d2f77702d636f6e74656e742f75706c6f6164732f323032322f30392f676f6f676c652d6265747465722d6164732d7374616e64617264732d363331376633353063316461322d73656a2d31323830783732302e706e6722206a73616374696f6e3d226c6f61643a5841655a6b643b22206a736e616d653d224869615976662220636c6173733d226e33564e4362204b416c5244622220616c743d22476f6f676c652057696c6c2052656a65637420416473204c656164696e6720546f205061676573205769746820496e74727573697665204164766572746973696e672220646174612d6e6f6166743d223122207374796c653d2277696474683a20313030253b206865696768743a203233332e34333870783b206d617267696e3a203070783b223e",
  "linkReferences": {},
  "deployedLinkReferences": {}
}