{
  "_format": "hh-sol-artifact-1",
  "contractName": "Article",
  "sourceName": "contracts/Article.sol",
  "abi": [
    {
      "inputs": [],
      "stateMutability": "payable",
      "type": "constructor"
    },
    {
      "anonymous": false,
      "inputs": [
        {
          "indexed": false,
          "internalType": "uint256",
          "name": "id",
          "type": "uint256"
        },
        {
          "indexed": true,
          "internalType": "address",
          "name": "from",
          "type": "address"
        },
        {
          "indexed": true,
          "internalType": "string",
          "name": "newsLang",
          "type": "string"
        },
        {
          "indexed": true,
          "internalType": "uint32",
          "name": "tag",
          "type": "uint32"
        },
        {
          "indexed": false,
          "internalType": "string",
          "name": "headline",
          "type": "string"
        },
        {
          "indexed": false,
          "internalType": "string",
          "name": "content",
          "type": "string"
        },
        {
          "indexed": false,
          "internalType": "uint256",
          "name": "timestamp",
          "type": "uint256"
        }
      ],
      "name": "post",
      "type": "event"
    },
    {
      "anonymous": false,
      "inputs": [
        {
          "indexed": false,
          "internalType": "uint32",
          "name": "tag",
          "type": "uint32"
        },
        {
          "indexed": false,
          "internalType": "uint256",
          "name": "id",
          "type": "uint256"
        },
        {
          "indexed": false,
          "internalType": "uint256",
          "name": "penalty",
          "type": "uint256"
        }
      ],
      "name": "refuteArticle",
      "type": "event"
    },
    {
      "anonymous": false,
      "inputs": [
        {
          "indexed": true,
          "internalType": "uint256",
          "name": "id",
          "type": "uint256"
        },
        {
          "components": [
            {
              "internalType": "uint256",
              "name": "id",
              "type": "uint256"
            },
            {
              "internalType": "bool",
              "name": "isReportPost",
              "type": "bool"
            },
            {
              "internalType": "bool",
              "name": "truth",
              "type": "bool"
            },
            {
              "internalType": "address payable",
              "name": "from",
              "type": "address"
            },
            {
              "internalType": "string",
              "name": "newsLang",
              "type": "string"
            },
            {
              "internalType": "uint32",
              "name": "tag",
              "type": "uint32"
            },
            {
              "internalType": "string",
              "name": "headline",
              "type": "string"
            },
            {
              "internalType": "string",
              "name": "content",
              "type": "string"
            },
            {
              "internalType": "uint256",
              "name": "timestamp",
              "type": "uint256"
            },
            {
              "internalType": "uint256",
              "name": "rating",
              "type": "uint256"
            },
            {
              "internalType": "uint32",
              "name": "interactions",
              "type": "uint32"
            },
            {
              "internalType": "uint256[]",
              "name": "reports",
              "type": "uint256[]"
            }
          ],
          "indexed": false,
          "internalType": "struct Article.Post",
          "name": "post",
          "type": "tuple"
        }
      ],
      "name": "viewPost",
      "type": "event"
    },
    {
      "stateMutability": "payable",
      "type": "fallback"
    },
    {
      "inputs": [
        {
          "internalType": "uint256",
          "name": "",
          "type": "uint256"
        },
        {
          "internalType": "uint256",
          "name": "",
          "type": "uint256"
        }
      ],
      "name": "Posts",
      "outputs": [
        {
          "internalType": "uint256",
          "name": "id",
          "type": "uint256"
        },
        {
          "internalType": "bool",
          "name": "isReportPost",
          "type": "bool"
        },
        {
          "internalType": "bool",
          "name": "truth",
          "type": "bool"
        },
        {
          "internalType": "address payable",
          "name": "from",
          "type": "address"
        },
        {
          "internalType": "string",
          "name": "newsLang",
          "type": "string"
        },
        {
          "internalType": "uint32",
          "name": "tag",
          "type": "uint32"
        },
        {
          "internalType": "string",
          "name": "headline",
          "type": "string"
        },
        {
          "internalType": "string",
          "name": "content",
          "type": "string"
        },
        {
          "internalType": "uint256",
          "name": "timestamp",
          "type": "uint256"
        },
        {
          "internalType": "uint256",
          "name": "rating",
          "type": "uint256"
        },
        {
          "internalType": "uint32",
          "name": "interactions",
          "type": "uint32"
        }
      ],
      "stateMutability": "view",
      "type": "function"
    },
    {
      "inputs": [
        {
          "internalType": "uint256",
          "name": "",
          "type": "uint256"
        }
      ],
      "name": "Reports",
      "outputs": [
        {
          "internalType": "uint256",
          "name": "id",
          "type": "uint256"
        },
        {
          "internalType": "bool",
          "name": "isArchived",
          "type": "bool"
        },
        {
          "internalType": "uint8",
          "name": "reportPostTag",
          "type": "uint8"
        },
        {
          "internalType": "uint256",
          "name": "reportPostID",
          "type": "uint256"
        }
      ],
      "stateMutability": "view",
      "type": "function"
    },
    {
      "inputs": [
        {
          "internalType": "uint256",
          "name": "id",
          "type": "uint256"
        }
      ],
      "name": "confirmReport",
      "outputs": [],
      "stateMutability": "nonpayable",
      "type": "function"
    },
    {
      "inputs": [
        {
          "internalType": "uint256",
          "name": "id",
          "type": "uint256"
        },
        {
          "internalType": "uint32",
          "name": "tag",
          "type": "uint32"
        }
      ],
      "name": "getPostByID",
      "outputs": [
        {
          "components": [
            {
              "internalType": "uint256",
              "name": "id",
              "type": "uint256"
            },
            {
              "internalType": "bool",
              "name": "isReportPost",
              "type": "bool"
            },
            {
              "internalType": "bool",
              "name": "truth",
              "type": "bool"
            },
            {
              "internalType": "address payable",
              "name": "from",
              "type": "address"
            },
            {
              "internalType": "string",
              "name": "newsLang",
              "type": "string"
            },
            {
              "internalType": "uint32",
              "name": "tag",
              "type": "uint32"
            },
            {
              "internalType": "string",
              "name": "headline",
              "type": "string"
            },
            {
              "internalType": "string",
              "name": "content",
              "type": "string"
            },
            {
              "internalType": "uint256",
              "name": "timestamp",
              "type": "uint256"
            },
            {
              "internalType": "uint256",
              "name": "rating",
              "type": "uint256"
            },
            {
              "internalType": "uint32",
              "name": "interactions",
              "type": "uint32"
            },
            {
              "internalType": "uint256[]",
              "name": "reports",
              "type": "uint256[]"
            }
          ],
          "internalType": "struct Article.Post",
          "name": "result",
          "type": "tuple"
        }
      ],
      "stateMutability": "view",
      "type": "function"
    },
    {
      "inputs": [
        {
          "internalType": "uint32",
          "name": "tag",
          "type": "uint32"
        }
      ],
      "name": "getPostByTag",
      "outputs": [
        {
          "components": [
            {
              "internalType": "uint256",
              "name": "id",
              "type": "uint256"
            },
            {
              "internalType": "bool",
              "name": "isReportPost",
              "type": "bool"
            },
            {
              "internalType": "bool",
              "name": "truth",
              "type": "bool"
            },
            {
              "internalType": "address payable",
              "name": "from",
              "type": "address"
            },
            {
              "internalType": "string",
              "name": "newsLang",
              "type": "string"
            },
            {
              "internalType": "uint32",
              "name": "tag",
              "type": "uint32"
            },
            {
              "internalType": "string",
              "name": "headline",
              "type": "string"
            },
            {
              "internalType": "string",
              "name": "content",
              "type": "string"
            },
            {
              "internalType": "uint256",
              "name": "timestamp",
              "type": "uint256"
            },
            {
              "internalType": "uint256",
              "name": "rating",
              "type": "uint256"
            },
            {
              "internalType": "uint32",
              "name": "interactions",
              "type": "uint32"
            },
            {
              "internalType": "uint256[]",
              "name": "reports",
              "type": "uint256[]"
            }
          ],
          "internalType": "struct Article.Post",
          "name": "",
          "type": "tuple"
        }
      ],
      "stateMutability": "nonpayable",
      "type": "function"
    },
    {
      "inputs": [
        {
          "internalType": "address payable",
          "name": "from",
          "type": "address"
        },
        {
          "internalType": "string",
          "name": "newsLang",
          "type": "string"
        },
        {
          "internalType": "uint32",
          "name": "tag",
          "type": "uint32"
        },
        {
          "internalType": "string",
          "name": "headline",
          "type": "string"
        },
        {
          "internalType": "string",
          "name": "content",
          "type": "string"
        },
        {
          "internalType": "uint256",
          "name": "rating",
          "type": "uint256"
        }
      ],
      "name": "postArticle",
      "outputs": [
        {
          "internalType": "uint256",
          "name": "id",
          "type": "uint256"
        }
      ],
      "stateMutability": "nonpayable",
      "type": "function"
    },
    {
      "inputs": [
        {
          "internalType": "uint256",
          "name": "",
          "type": "uint256"
        }
      ],
      "name": "postCount",
      "outputs": [
        {
          "internalType": "uint256",
          "name": "",
          "type": "uint256"
        }
      ],
      "stateMutability": "view",
      "type": "function"
    },
    {
      "inputs": [
        {
          "internalType": "uint256",
          "name": "id",
          "type": "uint256"
        }
      ],
      "name": "refuteReport",
      "outputs": [],
      "stateMutability": "nonpayable",
      "type": "function"
    },
    {
      "inputs": [
        {
          "internalType": "uint8",
          "name": "reportPostTag",
          "type": "uint8"
        },
        {
          "internalType": "uint256",
          "name": "reportPostID",
          "type": "uint256"
        },
        {
          "internalType": "address payable",
          "name": "from",
          "type": "address"
        },
        {
          "internalType": "string",
          "name": "newsLang",
          "type": "string"
        },
        {
          "internalType": "string",
          "name": "headline",
          "type": "string"
        },
        {
          "internalType": "string",
          "name": "content",
          "type": "string"
        },
        {
          "internalType": "uint256",
          "name": "rating",
          "type": "uint256"
        }
      ],
      "name": "reportArticle",
      "outputs": [],
      "stateMutability": "nonpayable",
      "type": "function"
    },
    {
      "inputs": [],
      "name": "reportCount",
      "outputs": [
        {
          "internalType": "uint256",
          "name": "",
          "type": "uint256"
        }
      ],
      "stateMutability": "view",
      "type": "function"
    },
    {
      "inputs": [
        {
          "internalType": "uint256",
          "name": "id",
          "type": "uint256"
        }
      ],
      "name": "reportStats",
      "outputs": [
        {
          "internalType": "uint256",
          "name": "confirmations",
          "type": "uint256"
        },
        {
          "internalType": "uint256",
          "name": "refutations",
          "type": "uint256"
        }
      ],
      "stateMutability": "view",
      "type": "function"
    },
    {
      "inputs": [
        {
          "internalType": "uint256",
          "name": "id",
          "type": "uint256"
        }
      ],
      "name": "viewConfirmations",
      "outputs": [
        {
          "internalType": "address[]",
          "name": "",
          "type": "address[]"
        }
      ],
      "stateMutability": "view",
      "type": "function"
    },
    {
      "inputs": [
        {
          "internalType": "uint256",
          "name": "id",
          "type": "uint256"
        },
        {
          "internalType": "uint32",
          "name": "tag",
          "type": "uint32"
        }
      ],
      "name": "withdraw",
      "outputs": [],
      "stateMutability": "payable",
      "type": "function"
    },
    {
      "stateMutability": "payable",
      "type": "receive"
    }
  ],
  "bytecode": "0x6080604052600060085564e8d4a5100060095564e8d4a51000600a55336000806101000a81548173ffffffffffffffffffffffffffffffffffffffff021916908373ffffffffffffffffffffffffffffffffffffffff1602179055506139238061006a6000396000f3fe6080604052600436106100c65760003560e01c8063467f2cd81161007f578063bd02574911610059578063bd025749146102bb578063e6876ecc146102e4578063f25060d21461030d578063f86c27d31461034a576100cd565b8063467f2cd8146102215780636145d1b714610261578063923da4701461027d576100cd565b80630e07f901146100cf5780630f6b75d6146100f85780630fabb8a814610135578063185c6f8414610172578063284837881461019d57806345c55e47146101da576100cd565b366100cd57005b005b3480156100db57600080fd5b506100f660048036038101906100f191906124dc565b610387565b005b34801561010457600080fd5b5061011f600480360381019061011a91906124dc565b6105d2565b60405161012c91906125f9565b60405180910390f35b34801561014157600080fd5b5061015c600480360381019061015791906127db565b610676565b60405161016991906128cb565b60405180910390f35b34801561017e57600080fd5b50610187610a54565b60405161019491906128cb565b60405180910390f35b3480156101a957600080fd5b506101c460048036038101906101bf91906124dc565b610a5a565b6040516101d191906128cb565b60405180910390f35b3480156101e657600080fd5b5061020160048036038101906101fc91906128e6565b610a75565b6040516102189b9a999897969594939291906129de565b60405180910390f35b34801561022d57600080fd5b50610248600480360381019061024391906124dc565b610cd1565b6040516102589493929190612aba565b60405180910390f35b61027b60048036038101906102769190612aff565b610d1b565b005b34801561028957600080fd5b506102a4600480360381019061029f91906124dc565b611216565b6040516102b2929190612b3f565b60405180910390f35b3480156102c757600080fd5b506102e260048036038101906102dd9190612b94565b611256565b005b3480156102f057600080fd5b5061030b600480360381019061030691906124dc565b61176f565b005b34801561031957600080fd5b50610334600480360381019061032f9190612aff565b6119ef565b6040516103419190612ed8565b60405180910390f35b34801561035657600080fd5b50610371600480360381019061036c9190612efa565b611da5565b60405161037e9190612ed8565b60405180910390f35b61042b336012600084815260200190815260200160002060040180548060200260200160405190810160405280929190818152602001828054801561042157602002820191906000526020600020905b8160009054906101000a900473ffffffffffffffffffffffffffffffffffffffff1673ffffffffffffffffffffffffffffffffffffffff16815260200190600101908083116103d7575b5050505050612284565b1561043557600080fd5b60126000828152602001908152602001600020600401339080600181540180825580915050600190039060005260206000200160009091909190916101000a81548173ffffffffffffffffffffffffffffffffffffffff021916908373ffffffffffffffffffffffffffffffffffffffff160217905550600a6012600083815260200190815260200160002060040180549050036105cf576000600b6000600781106104e4576104e3612f27565b5b01600083815260200190815260200160002060080160009054906101000a900463ffffffff1663ffffffff16600a5461051d9190612f85565b90507fec7a6d51f9e94386ae3c020b954f8b4aabd4ec48d601a0ec75197fc24a74b602600083836040516105539392919061300c565b60405180910390a16000600b60006007811061057257610571612f27565b5b01600084815260200190815260200160002060010160016101000a81548160ff02191690831515021790555060016012600084815260200190815260200160002060010160006101000a81548160ff021916908315150217905550505b50565b60606012600083815260200190815260200160002060030180548060200260200160405190810160405280929190818152602001828054801561066a57602002820191906000526020600020905b8160009054906101000a900473ffffffffffffffffffffffffffffffffffffffff1673ffffffffffffffffffffffffffffffffffffffff1681526020019060010190808311610620575b50505050509050919050565b6000600763ffffffff168563ffffffff1610801561069b575060008563ffffffff1610155b6106da576040517f08c379a00000000000000000000000000000000000000000000000000000000081526004016106d19061308f565b60405180910390fd5b60405180610180016040528060018763ffffffff1660078110610700576106ff612f27565b5b015481526020016000151581526020016001151581526020018873ffffffffffffffffffffffffffffffffffffffff1681526020018781526020018663ffffffff168152602001858152602001848152602001428152602001838152602001600063ffffffff168152602001600067ffffffffffffffff81111561078757610786612674565b5b6040519080825280602002602001820160405280156107b55781602001602082028036833780820191505090505b50815250600b8663ffffffff16600781106107d3576107d2612f27565b5b01600060018863ffffffff16600781106107f0576107ef612f27565b5b015481526020019081526020016000206000820151816000015560208201518160010160006101000a81548160ff02191690831515021790555060408201518160010160016101000a81548160ff02191690831515021790555060608201518160010160026101000a81548173ffffffffffffffffffffffffffffffffffffffff021916908373ffffffffffffffffffffffffffffffffffffffff16021790555060808201518160020190816108a691906132b1565b5060a08201518160030160006101000a81548163ffffffff021916908363ffffffff16021790555060c08201518160040190816108e391906132b1565b5060e08201518160050190816108f991906132b1565b50610100820151816006015561012082015181600701556101408201518160080160006101000a81548163ffffffff021916908363ffffffff160217905550610160820151816009019080519060200190610955929190612317565b5090505060018563ffffffff166007811061097357610972612f27565b5b01600081548092919061098590613383565b91905055508463ffffffff168660405161099f9190613407565b60405180910390208873ffffffffffffffffffffffffffffffffffffffff167f4b72fd22411255fb6c0ab60c7ea7c4a84ff441285ba1eeafcfce60404bba9ac16001808a63ffffffff16600781106109fa576109f9612f27565b5b0154610a06919061341e565b888842604051610a199493929190613452565b60405180910390a46001808663ffffffff1660078110610a3c57610a3b612f27565b5b0154610a48919061341e565b90509695505050505050565b60085481565b60018160078110610a6a57600080fd5b016000915090505481565b600b8260078110610a8557600080fd5b01602052806000526040600020600091509150508060000154908060010160009054906101000a900460ff16908060010160019054906101000a900460ff16908060010160029054906101000a900473ffffffffffffffffffffffffffffffffffffffff1690806002018054610afa906130de565b80601f0160208091040260200160405190810160405280929190818152602001828054610b26906130de565b8015610b735780601f10610b4857610100808354040283529160200191610b73565b820191906000526020600020905b815481529060010190602001808311610b5657829003601f168201915b5050505050908060030160009054906101000a900463ffffffff1690806004018054610b9e906130de565b80601f0160208091040260200160405190810160405280929190818152602001828054610bca906130de565b8015610c175780601f10610bec57610100808354040283529160200191610c17565b820191906000526020600020905b815481529060010190602001808311610bfa57829003601f168201915b505050505090806005018054610c2c906130de565b80601f0160208091040260200160405190810160405280929190818152602001828054610c58906130de565b8015610ca55780601f10610c7a57610100808354040283529160200191610ca5565b820191906000526020600020905b815481529060010190602001808311610c8857829003601f168201915b5050505050908060060154908060070154908060080160009054906101000a900463ffffffff1690508b565b60126020528060005260406000206000915090508060000154908060010160009054906101000a900460ff16908060010160019054906101000a900460ff16908060020154905084565b6000600b8263ffffffff1660078110610d3757610d36612f27565b5b01600084815260200190815260200160002060405180610180016040529081600082015481526020016001820160009054906101000a900460ff161515151581526020016001820160019054906101000a900460ff161515151581526020016001820160029054906101000a900473ffffffffffffffffffffffffffffffffffffffff1673ffffffffffffffffffffffffffffffffffffffff1673ffffffffffffffffffffffffffffffffffffffff168152602001600282018054610dfb906130de565b80601f0160208091040260200160405190810160405280929190818152602001828054610e27906130de565b8015610e745780601f10610e4957610100808354040283529160200191610e74565b820191906000526020600020905b815481529060010190602001808311610e5757829003601f168201915b505050505081526020016003820160009054906101000a900463ffffffff1663ffffffff1663ffffffff168152602001600482018054610eb3906130de565b80601f0160208091040260200160405190810160405280929190818152602001828054610edf906130de565b8015610f2c5780601f10610f0157610100808354040283529160200191610f2c565b820191906000526020600020905b815481529060010190602001808311610f0f57829003601f168201915b50505050508152602001600582018054610f45906130de565b80601f0160208091040260200160405190810160405280929190818152602001828054610f71906130de565b8015610fbe5780601f10610f9357610100808354040283529160200191610fbe565b820191906000526020600020905b815481529060010190602001808311610fa157829003601f168201915b5050505050815260200160068201548152602001600782015481526020016008820160009054906101000a900463ffffffff1663ffffffff1663ffffffff1681526020016009820180548060200260200160405190810160405280929190818152602001828054801561105057602002820191906000526020600020905b81548152602001906001019080831161103c575b50505050508152505090503373ffffffffffffffffffffffffffffffffffffffff16816060015173ffffffffffffffffffffffffffffffffffffffff16146110cd576040517f08c379a00000000000000000000000000000000000000000000000000000000081526004016110c490613517565b60405180910390fd5b600b8263ffffffff16600781106110e7576110e6612f27565b5b01600084815260200190815260200160002060010160019054906101000a900460ff16611149576040517f08c379a000000000000000000000000000000000000000000000000000000000815260040161114090613583565b60405180910390fd5b600b8263ffffffff166007811061116357611162612f27565b5b01600084815260200190815260200160002060010160029054906101000a900473ffffffffffffffffffffffffffffffffffffffff1673ffffffffffffffffffffffffffffffffffffffff166108fc60095483610140015163ffffffff166111cb9190612f85565b9081150290604051600060405180830381858888f193505050501580156111f6573d6000803e3d6000fd5b50600081610140019063ffffffff16908163ffffffff1681525050505050565b6000806012600084815260200190815260200160002060030180549050601260008581526020019081526020016000206004018054905091509150915091565b630510ff40811161129c576040517f08c379a0000000000000000000000000000000000000000000000000000000008152600401611293906135ef565b60405180910390fd5b60405180610180016040528060085481526020016001151581526020016001151581526020018673ffffffffffffffffffffffffffffffffffffffff168152602001858152602001600063ffffffff168152602001848152602001838152602001428152602001828152602001600063ffffffff168152602001600067ffffffffffffffff81111561133157611330612674565b5b60405190808252806020026020018201604052801561135f5781602001602082028036833780820191505090505b50815250600b60006007811061137857611377612f27565b5b01600060085481526020019081526020016000206000820151816000015560208201518160010160006101000a81548160ff02191690831515021790555060408201518160010160016101000a81548160ff02191690831515021790555060608201518160010160026101000a81548173ffffffffffffffffffffffffffffffffffffffff021916908373ffffffffffffffffffffffffffffffffffffffff160217905550608082015181600201908161143291906132b1565b5060a08201518160030160006101000a81548163ffffffff021916908363ffffffff16021790555060c082015181600401908161146f91906132b1565b5060e082015181600501908161148591906132b1565b50610100820151816006015561012082015181600701556101408201518160080160006101000a81548163ffffffff021916908363ffffffff1602179055506101608201518160090190805190602001906114e1929190612317565b509050506040518060c0016040528060085481526020016000151581526020018860ff168152602001878152602001600067ffffffffffffffff81111561152b5761152a612674565b5b6040519080825280602002602001820160405280156115595781602001602082028036833780820191505090505b508152602001600067ffffffffffffffff81111561157a57611579612674565b5b6040519080825280602002602001820160405280156115a85781602001602082028036833780820191505090505b508152506012600060085481526020019081526020016000206000820151816000015560208201518160010160006101000a81548160ff02191690831515021790555060408201518160010160016101000a81548160ff021916908360ff160217905550606082015181600201556080820151816003019080519060200190611632929190612364565b5060a082015181600401908051906020019061164f929190612364565b50905050600b8760ff166007811061166a57611669612f27565b5b0160008781526020019081526020016000206009016008549080600181540180825580915050600190039060005260206000200160009091909190915055600860008154809291906116bb90613383565b919050555060016000600781106116d5576116d4612f27565b5b0160008154809291906116e790613383565b91905055506000846040516116fc9190613407565b60405180910390208673ffffffffffffffffffffffffffffffffffffffff167f4b72fd22411255fb6c0ab60c7ea7c4a84ff441285ba1eeafcfce60404bba9ac1600160085461174b919061341e565b87874260405161175e9493929190613452565b60405180910390a450505050505050565b6012600082815260200190815260200160002060010160009054906101000a900460ff16156117d3576040517f08c379a00000000000000000000000000000000000000000000000000000000081526004016117ca9061365b565b60405180910390fd5b60126000828152602001908152602001600020600301339080600181540180825580915050600190039060005260206000200160009091909190916101000a81548173ffffffffffffffffffffffffffffffffffffffff021916908373ffffffffffffffffffffffffffffffffffffffff160217905550600a6012600083815260200190815260200160002060030180549050036119ec576000600b6012600084815260200190815260200160002060010160019054906101000a900460ff1660ff16600781106118a7576118a6612f27565b5b0160006012600085815260200190815260200160002060020154815260200190815260200160002060080160009054906101000a900463ffffffff1663ffffffff16600a546118f69190612f85565b90507fec7a6d51f9e94386ae3c020b954f8b4aabd4ec48d601a0ec75197fc24a74b6026012600084815260200190815260200160002060010160019054906101000a900460ff16601260008581526020019081526020016000206002015483604051611964939291906136ac565b60405180910390a16000600b6012600085815260200190815260200160002060010160019054906101000a900460ff1660ff16600781106119a8576119a7612f27565b5b0160006012600086815260200190815260200160002060020154815260200190815260200160002060010160016101000a81548160ff021916908315150217905550505b50565b6119f76123ee565b60008310158015611a22575060018263ffffffff1660078110611a1d57611a1c612f27565b5b015483105b611a61576040517f08c379a0000000000000000000000000000000000000000000000000000000008152600401611a589061372f565b60405180910390fd5b600b8263ffffffff1660078110611a7b57611a7a612f27565b5b01600084815260200190815260200160002060405180610180016040529081600082015481526020016001820160009054906101000a900460ff161515151581526020016001820160019054906101000a900460ff161515151581526020016001820160029054906101000a900473ffffffffffffffffffffffffffffffffffffffff1673ffffffffffffffffffffffffffffffffffffffff1673ffffffffffffffffffffffffffffffffffffffff168152602001600282018054611b3f906130de565b80601f0160208091040260200160405190810160405280929190818152602001828054611b6b906130de565b8015611bb85780601f10611b8d57610100808354040283529160200191611bb8565b820191906000526020600020905b815481529060010190602001808311611b9b57829003601f168201915b505050505081526020016003820160009054906101000a900463ffffffff1663ffffffff1663ffffffff168152602001600482018054611bf7906130de565b80601f0160208091040260200160405190810160405280929190818152602001828054611c23906130de565b8015611c705780601f10611c4557610100808354040283529160200191611c70565b820191906000526020600020905b815481529060010190602001808311611c5357829003601f168201915b50505050508152602001600582018054611c89906130de565b80601f0160208091040260200160405190810160405280929190818152602001828054611cb5906130de565b8015611d025780601f10611cd757610100808354040283529160200191611d02565b820191906000526020600020905b815481529060010190602001808311611ce557829003601f168201915b5050505050815260200160068201548152602001600782015481526020016008820160009054906101000a900463ffffffff1663ffffffff1663ffffffff16815260200160098201805480602002602001604051908101604052809291908181526020018280548015611d9457602002820191906000526020600020905b815481526020019060010190808311611d80575b505050505081525050905092915050565b611dad6123ee565b600763ffffffff168263ffffffff16108015611dd0575060008263ffffffff1610155b611e0f576040517f08c379a0000000000000000000000000000000000000000000000000000000008152600401611e069061379b565b60405180910390fd5b600060018363ffffffff1660078110611e2b57611e2a612f27565b5b015411611e3757600080fd5b60005b60018363ffffffff1660078110611e5457611e53612f27565b5b0154424433604051602001611e6b93929190613824565b6040516020818303038152906040528051906020012060001c611e8e9190613890565b9050600b8363ffffffff1660078110611eaa57611ea9612f27565b5b01600082815260200190815260200160002060010160019054906101000a900460ff1615611e3a57600b8363ffffffff1660078110611eec57611eeb612f27565b5b016000828152602001908152602001600020600801600081819054906101000a900463ffffffff1680929190611f21906138c1565b91906101000a81548163ffffffff021916908363ffffffff16021790555050600b8363ffffffff1660078110611f5a57611f59612f27565b5b01600082815260200190815260200160002060405180610180016040529081600082015481526020016001820160009054906101000a900460ff161515151581526020016001820160019054906101000a900460ff161515151581526020016001820160029054906101000a900473ffffffffffffffffffffffffffffffffffffffff1673ffffffffffffffffffffffffffffffffffffffff1673ffffffffffffffffffffffffffffffffffffffff16815260200160028201805461201e906130de565b80601f016020809104026020016040519081016040528092919081815260200182805461204a906130de565b80156120975780601f1061206c57610100808354040283529160200191612097565b820191906000526020600020905b81548152906001019060200180831161207a57829003601f168201915b505050505081526020016003820160009054906101000a900463ffffffff1663ffffffff1663ffffffff1681526020016004820180546120d6906130de565b80601f0160208091040260200160405190810160405280929190818152602001828054612102906130de565b801561214f5780601f106121245761010080835404028352916020019161214f565b820191906000526020600020905b81548152906001019060200180831161213257829003601f168201915b50505050508152602001600582018054612168906130de565b80601f0160208091040260200160405190810160405280929190818152602001828054612194906130de565b80156121e15780601f106121b6576101008083540402835291602001916121e1565b820191906000526020600020905b8154815290600101906020018083116121c457829003601f168201915b5050505050815260200160068201548152602001600782015481526020016008820160009054906101000a900463ffffffff1663ffffffff1663ffffffff1681526020016009820180548060200260200160405190810160405280929190818152602001828054801561227357602002820191906000526020600020905b81548152602001906001019080831161225f575b505050505081525050915050919050565b600080600090505b82518163ffffffff16101561230b57828163ffffffff16815181106122b4576122b3612f27565b5b602002602001015173ffffffffffffffffffffffffffffffffffffffff168473ffffffffffffffffffffffffffffffffffffffff16036122f8576001915050612311565b8080612303906138c1565b91505061228c565b50600090505b92915050565b828054828255906000526020600020908101928215612353579160200282015b82811115612352578251825591602001919060010190612337565b5b5090506123609190612475565b5090565b8280548282559060005260206000209081019282156123dd579160200282015b828111156123dc5782518260006101000a81548173ffffffffffffffffffffffffffffffffffffffff021916908373ffffffffffffffffffffffffffffffffffffffff16021790555091602001919060010190612384565b5b5090506123ea9190612475565b5090565b60405180610180016040528060008152602001600015158152602001600015158152602001600073ffffffffffffffffffffffffffffffffffffffff16815260200160608152602001600063ffffffff16815260200160608152602001606081526020016000815260200160008152602001600063ffffffff168152602001606081525090565b5b8082111561248e576000816000905550600101612476565b5090565b6000604051905090565b600080fd5b600080fd5b6000819050919050565b6124b9816124a6565b81146124c457600080fd5b50565b6000813590506124d6816124b0565b92915050565b6000602082840312156124f2576124f161249c565b5b6000612500848285016124c7565b91505092915050565b600081519050919050565b600082825260208201905092915050565b6000819050602082019050919050565b600073ffffffffffffffffffffffffffffffffffffffff82169050919050565b600061256082612535565b9050919050565b61257081612555565b82525050565b60006125828383612567565b60208301905092915050565b6000602082019050919050565b60006125a682612509565b6125b08185612514565b93506125bb83612525565b8060005b838110156125ec5781516125d38882612576565b97506125de8361258e565b9250506001810190506125bf565b5085935050505092915050565b60006020820190508181036000830152612613818461259b565b905092915050565b600061262682612535565b9050919050565b6126368161261b565b811461264157600080fd5b50565b6000813590506126538161262d565b92915050565b600080fd5b600080fd5b6000601f19601f8301169050919050565b7f4e487b7100000000000000000000000000000000000000000000000000000000600052604160045260246000fd5b6126ac82612663565b810181811067ffffffffffffffff821117156126cb576126ca612674565b5b80604052505050565b60006126de612492565b90506126ea82826126a3565b919050565b600067ffffffffffffffff82111561270a57612709612674565b5b61271382612663565b9050602081019050919050565b82818337600083830152505050565b600061274261273d846126ef565b6126d4565b90508281526020810184848401111561275e5761275d61265e565b5b612769848285612720565b509392505050565b600082601f83011261278657612785612659565b5b813561279684826020860161272f565b91505092915050565b600063ffffffff82169050919050565b6127b88161279f565b81146127c357600080fd5b50565b6000813590506127d5816127af565b92915050565b60008060008060008060c087890312156127f8576127f761249c565b5b600061280689828a01612644565b965050602087013567ffffffffffffffff811115612827576128266124a1565b5b61283389828a01612771565b955050604061284489828a016127c6565b945050606087013567ffffffffffffffff811115612865576128646124a1565b5b61287189828a01612771565b935050608087013567ffffffffffffffff811115612892576128916124a1565b5b61289e89828a01612771565b92505060a06128af89828a016124c7565b9150509295509295509295565b6128c5816124a6565b82525050565b60006020820190506128e060008301846128bc565b92915050565b600080604083850312156128fd576128fc61249c565b5b600061290b858286016124c7565b925050602061291c858286016124c7565b9150509250929050565b60008115159050919050565b61293b81612926565b82525050565b61294a8161261b565b82525050565b600081519050919050565b600082825260208201905092915050565b60005b8381101561298a57808201518184015260208101905061296f565b60008484015250505050565b60006129a182612950565b6129ab818561295b565b93506129bb81856020860161296c565b6129c481612663565b840191505092915050565b6129d88161279f565b82525050565b6000610160820190506129f4600083018e6128bc565b612a01602083018d612932565b612a0e604083018c612932565b612a1b606083018b612941565b8181036080830152612a2d818a612996565b9050612a3c60a08301896129cf565b81810360c0830152612a4e8188612996565b905081810360e0830152612a628187612996565b9050612a726101008301866128bc565b612a806101208301856128bc565b612a8e6101408301846129cf565b9c9b505050505050505050505050565b600060ff82169050919050565b612ab481612a9e565b82525050565b6000608082019050612acf60008301876128bc565b612adc6020830186612932565b612ae96040830185612aab565b612af660608301846128bc565b95945050505050565b60008060408385031215612b1657612b1561249c565b5b6000612b24858286016124c7565b9250506020612b35858286016127c6565b9150509250929050565b6000604082019050612b5460008301856128bc565b612b6160208301846128bc565b9392505050565b612b7181612a9e565b8114612b7c57600080fd5b50565b600081359050612b8e81612b68565b92915050565b600080600080600080600060e0888a031215612bb357612bb261249c565b5b6000612bc18a828b01612b7f565b9750506020612bd28a828b016124c7565b9650506040612be38a828b01612644565b955050606088013567ffffffffffffffff811115612c0457612c036124a1565b5b612c108a828b01612771565b945050608088013567ffffffffffffffff811115612c3157612c306124a1565b5b612c3d8a828b01612771565b93505060a088013567ffffffffffffffff811115612c5e57612c5d6124a1565b5b612c6a8a828b01612771565b92505060c0612c7b8a828b016124c7565b91505092959891949750929550565b612c93816124a6565b82525050565b612ca281612926565b82525050565b612cb18161261b565b82525050565b600082825260208201905092915050565b6000612cd382612950565b612cdd8185612cb7565b9350612ced81856020860161296c565b612cf681612663565b840191505092915050565b612d0a8161279f565b82525050565b600081519050919050565b600082825260208201905092915050565b6000819050602082019050919050565b6000612d488383612c8a565b60208301905092915050565b6000602082019050919050565b6000612d6c82612d10565b612d768185612d1b565b9350612d8183612d2c565b8060005b83811015612db2578151612d998882612d3c565b9750612da483612d54565b925050600181019050612d85565b5085935050505092915050565b600061018083016000830151612dd86000860182612c8a565b506020830151612deb6020860182612c99565b506040830151612dfe6040860182612c99565b506060830151612e116060860182612ca8565b5060808301518482036080860152612e298282612cc8565b91505060a0830151612e3e60a0860182612d01565b5060c083015184820360c0860152612e568282612cc8565b91505060e083015184820360e0860152612e708282612cc8565b915050610100830151612e87610100860182612c8a565b50610120830151612e9c610120860182612c8a565b50610140830151612eb1610140860182612d01565b50610160830151848203610160860152612ecb8282612d61565b9150508091505092915050565b60006020820190508181036000830152612ef28184612dbf565b905092915050565b600060208284031215612f1057612f0f61249c565b5b6000612f1e848285016127c6565b91505092915050565b7f4e487b7100000000000000000000000000000000000000000000000000000000600052603260045260246000fd5b7f4e487b7100000000000000000000000000000000000000000000000000000000600052601160045260246000fd5b6000612f90826124a6565b9150612f9b836124a6565b9250828202612fa9816124a6565b91508282048414831517612fc057612fbf612f56565b5b5092915050565b6000819050919050565b6000819050919050565b6000612ff6612ff1612fec84612fc7565b612fd1565b61279f565b9050919050565b61300681612fdb565b82525050565b60006060820190506130216000830186612ffd565b61302e60208301856128bc565b61303b60408301846128bc565b949350505050565b7f4976616c69642074616700000000000000000000000000000000000000000000600082015250565b6000613079600a8361295b565b915061308482613043565b602082019050919050565b600060208201905081810360008301526130a88161306c565b9050919050565b7f4e487b7100000000000000000000000000000000000000000000000000000000600052602260045260246000fd5b600060028204905060018216806130f657607f821691505b602082108103613109576131086130af565b5b50919050565b60008190508160005260206000209050919050565b60006020601f8301049050919050565b600082821b905092915050565b6000600883026131717fffffffffffffffffffffffffffffffffffffffffffffffffffffffffffffffff82613134565b61317b8683613134565b95508019841693508086168417925050509392505050565b60006131ae6131a96131a4846124a6565b612fd1565b6124a6565b9050919050565b6000819050919050565b6131c883613193565b6131dc6131d4826131b5565b848454613141565b825550505050565b600090565b6131f16131e4565b6131fc8184846131bf565b505050565b5b81811015613220576132156000826131e9565b600181019050613202565b5050565b601f821115613265576132368161310f565b61323f84613124565b8101602085101561324e578190505b61326261325a85613124565b830182613201565b50505b505050565b600082821c905092915050565b60006132886000198460080261326a565b1980831691505092915050565b60006132a18383613277565b9150826002028217905092915050565b6132ba82612950565b67ffffffffffffffff8111156132d3576132d2612674565b5b6132dd82546130de565b6132e8828285613224565b600060209050601f83116001811461331b5760008415613309578287015190505b6133138582613295565b86555061337b565b601f1984166133298661310f565b60005b828110156133515784890151825560018201915060208501945060208101905061332c565b8683101561336e578489015161336a601f891682613277565b8355505b6001600288020188555050505b505050505050565b600061338e826124a6565b91507fffffffffffffffffffffffffffffffffffffffffffffffffffffffffffffffff82036133c0576133bf612f56565b5b600182019050919050565b600081905092915050565b60006133e182612950565b6133eb81856133cb565b93506133fb81856020860161296c565b80840191505092915050565b600061341382846133d6565b915081905092915050565b6000613429826124a6565b9150613434836124a6565b925082820390508181111561344c5761344b612f56565b5b92915050565b600060808201905061346760008301876128bc565b81810360208301526134798186612996565b9050818103604083015261348d8185612996565b905061349c60608301846128bc565b95945050505050565b7f596f7520617265206e6f7420746865206f776e6572206f66207468697320706f60008201527f7374000000000000000000000000000000000000000000000000000000000000602082015250565b600061350160228361295b565b915061350c826134a5565b604082019050919050565b60006020820190508181036000830152613530816134f4565b9050919050565b7f5468697320706f737420686173206265656e20666c61676765642066616c7365600082015250565b600061356d60208361295b565b915061357882613537565b602082019050919050565b6000602082019050818103600083015261359c81613560565b9050919050565b7f526174696e67206d7573742062652067726561746572207468616e2038352500600082015250565b60006135d9601f8361295b565b91506135e4826135a3565b602082019050919050565b60006020820190508181036000830152613608816135cc565b9050919050565b7f5265706f7274206973207265667574656420616e642061726368697665640000600082015250565b6000613645601e8361295b565b91506136508261360f565b602082019050919050565b6000602082019050818103600083015261367481613638565b9050919050565b600061369661369161368c84612a9e565b612fd1565b61279f565b9050919050565b6136a68161367b565b82525050565b60006060820190506136c1600083018661369d565b6136ce60208301856128bc565b6136db60408301846128bc565b949350505050565b7f496e76616c696420696e64696365730000000000000000000000000000000000600082015250565b6000613719600f8361295b565b9150613724826136e3565b602082019050919050565b600060208201905081810360008301526137488161370c565b9050919050565b7f496e76616c696420746167000000000000000000000000000000000000000000600082015250565b6000613785600b8361295b565b91506137908261374f565b602082019050919050565b600060208201905081810360008301526137b481613778565b9050919050565b6000819050919050565b6137d66137d1826124a6565b6137bb565b82525050565b60008160601b9050919050565b60006137f4826137dc565b9050919050565b6000613806826137e9565b9050919050565b61381e61381982612555565b6137fb565b82525050565b600061383082866137c5565b60208201915061384082856137c5565b602082019150613850828461380d565b601482019150819050949350505050565b7f4e487b7100000000000000000000000000000000000000000000000000000000600052601260045260246000fd5b600061389b826124a6565b91506138a6836124a6565b9250826138b6576138b5613861565b5b828206905092915050565b60006138cc8261279f565b915063ffffffff82036138e2576138e1612f56565b5b60018201905091905056fea26469706673582212203f0d65807e238549a0fa75b5cc3c2f0203dfd847c508d6ea2d193a1e1ddea3c364736f6c63430008110033",
  "linkReferences": {},
  "deployedLinkReferences": {}
}