{
  "_format": "hh-sol-artifact-1",
  "contractName": "UserData",
  "sourceName": "contracts/UserData.sol",
  "abi": [
    {
      "inputs": [],
      "stateMutability": "nonpayable",
      "type": "constructor"
    },
    {
      "inputs": [
        {
          "internalType": "address",
          "name": "",
          "type": "address"
        }
      ],
      "name": "Users",
      "outputs": [
        {
          "internalType": "address",
          "name": "wallet",
          "type": "address"
        },
        {
          "internalType": "int256",
          "name": "balance",
          "type": "int256"
        },
        {
          "internalType": "int256",
          "name": "brownie",
          "type": "int256"
        },
        {
          "internalType": "int256",
          "name": "reputation",
          "type": "int256"
        },
        {
          "internalType": "bool",
          "name": "exists",
          "type": "bool"
        }
      ],
      "stateMutability": "view",
      "type": "function"
    },
    {
      "inputs": [],
      "name": "checkMinUserBalanceReq",
      "outputs": [
        {
          "internalType": "bool",
          "name": "",
          "type": "bool"
        }
      ],
      "stateMutability": "view",
      "type": "function"
    },
    {
      "inputs": [
        {
          "internalType": "int256",
          "name": "minUserBalanceReq",
          "type": "int256"
        }
      ],
      "name": "checkMinUserBalanceReq",
      "outputs": [
        {
          "internalType": "bool",
          "name": "",
          "type": "bool"
        }
      ],
      "stateMutability": "view",
      "type": "function"
    },
    {
      "inputs": [
        {
          "internalType": "address",
          "name": "user",
          "type": "address"
        }
      ],
      "name": "checkUserBalance",
      "outputs": [
        {
          "internalType": "int256",
          "name": "",
          "type": "int256"
        }
      ],
      "stateMutability": "view",
      "type": "function"
    },
    {
      "inputs": [],
      "name": "checkUserBalance",
      "outputs": [
        {
          "internalType": "int256",
          "name": "",
          "type": "int256"
        }
      ],
      "stateMutability": "view",
      "type": "function"
    },
    {
      "inputs": [],
      "name": "createNewUser",
      "outputs": [],
      "stateMutability": "nonpayable",
      "type": "function"
    },
    {
      "inputs": [],
      "name": "deposit",
      "outputs": [],
      "stateMutability": "payable",
      "type": "function"
    },
    {
      "inputs": [],
      "name": "fundUser",
      "outputs": [],
      "stateMutability": "payable",
      "type": "function"
    },
    {
      "inputs": [
        {
          "internalType": "address",
          "name": "user",
          "type": "address"
        }
      ],
      "name": "penalize",
      "outputs": [],
      "stateMutability": "nonpayable",
      "type": "function"
    },
    {
      "inputs": [
        {
          "internalType": "address",
          "name": "user",
          "type": "address"
        },
        {
          "internalType": "int256",
          "name": "penalty",
          "type": "int256"
        }
      ],
      "name": "penalize",
      "outputs": [],
      "stateMutability": "nonpayable",
      "type": "function"
    },
    {
      "inputs": [],
      "name": "userCount",
      "outputs": [
        {
          "internalType": "uint256",
          "name": "",
          "type": "uint256"
        }
      ],
      "stateMutability": "view",
      "type": "function"
    }
  ],
  "bytecode": "0x60806040526000600155600060025560006003553480156200002057600080fd5b50336000806101000a81548173ffffffffffffffffffffffffffffffffffffffff021916908373ffffffffffffffffffffffffffffffffffffffff160217905550620000716200007760201b60201c565b6200031d565b620000876200008960201b60201c565b565b600460003373ffffffffffffffffffffffffffffffffffffffff1673ffffffffffffffffffffffffffffffffffffffff16815260200190815260200160002060040160009054906101000a900460ff16156200011c576040517f08c379a0000000000000000000000000000000000000000000000000000000008152600401620001139062000275565b60405180910390fd5b33600460003373ffffffffffffffffffffffffffffffffffffffff1673ffffffffffffffffffffffffffffffffffffffff16815260200190815260200160002060000160006101000a81548173ffffffffffffffffffffffffffffffffffffffff021916908373ffffffffffffffffffffffffffffffffffffffff1602179055506001600460003373ffffffffffffffffffffffffffffffffffffffff1673ffffffffffffffffffffffffffffffffffffffff16815260200190815260200160002060040160006101000a81548160ff021916908315150217905550600360008154809291906200020d90620002d0565b9190505550565b600082825260208201905092915050565b7f5573657220616c7265616479206578697374730a000000000000000000000000600082015250565b60006200025d60148362000214565b91506200026a8262000225565b602082019050919050565b6000602082019050818103600083015262000290816200024e565b9050919050565b7f4e487b7100000000000000000000000000000000000000000000000000000000600052601160045260246000fd5b6000819050919050565b6000620002dd82620002c6565b91507fffffffffffffffffffffffffffffffffffffffffffffffffffffffffffffffff820362000312576200031162000297565b5b600182019050919050565b611232806200032d6000396000f3fe60806040526004361061009c5760003560e01c806378d97c941161006457806378d97c941461015557806399b956a01461017e578063bc97f20b146101bf578063d0e30db0146101e8578063d55536e9146101f2578063dfe157191461022f5761009c565b806307973ccf146100a15780630a9bfef5146100cc57806317633dcf146101095780631fd7af871461013457806350afb4521461013e575b600080fd5b3480156100ad57600080fd5b506100b661025a565b6040516100c39190610d99565b60405180910390f35b3480156100d857600080fd5b506100f360048036038101906100ee9190610e17565b610260565b6040516101009190610e5d565b60405180910390f35b34801561011557600080fd5b5061011e6103ca565b60405161012b9190610e93565b60405180910390f35b61013c6104a8565b005b34801561014a57600080fd5b5061015361059a565b005b34801561016157600080fd5b5061017c60048036038101906101779190610e17565b610720565b005b34801561018a57600080fd5b506101a560048036038101906101a09190610e17565b61089b565b6040516101b6959493929190610ebd565b60405180910390f35b3480156101cb57600080fd5b506101e660048036038101906101e19190610f3c565b6108fe565b005b6101f0610a78565b005b3480156101fe57600080fd5b5061021960048036038101906102149190610f7c565b610bc9565b6040516102269190610e93565b60405180910390f35b34801561023b57600080fd5b50610244610ca7565b6040516102519190610e5d565b60405180910390f35b60035481565b60008060009054906101000a900473ffffffffffffffffffffffffffffffffffffffff1673ffffffffffffffffffffffffffffffffffffffff163373ffffffffffffffffffffffffffffffffffffffff16146102f1576040517f08c379a00000000000000000000000000000000000000000000000000000000081526004016102e890611006565b60405180910390fd5b600460008373ffffffffffffffffffffffffffffffffffffffff1673ffffffffffffffffffffffffffffffffffffffff16815260200190815260200160002060040160009054906101000a900460ff16610380576040517f08c379a000000000000000000000000000000000000000000000000000000000815260040161037790611072565b60405180910390fd5b600460008373ffffffffffffffffffffffffffffffffffffffff1673ffffffffffffffffffffffffffffffffffffffff168152602001908152602001600020600101549050919050565b6000600460003373ffffffffffffffffffffffffffffffffffffffff1673ffffffffffffffffffffffffffffffffffffffff16815260200190815260200160002060040160009054906101000a900460ff1661045b576040517f08c379a000000000000000000000000000000000000000000000000000000000815260040161045290611072565b60405180910390fd5b600154600460003373ffffffffffffffffffffffffffffffffffffffff1673ffffffffffffffffffffffffffffffffffffffff168152602001908152602001600020600101541215905090565b600460003373ffffffffffffffffffffffffffffffffffffffff1673ffffffffffffffffffffffffffffffffffffffff16815260200190815260200160002060040160009054906101000a900460ff16610537576040517f08c379a000000000000000000000000000000000000000000000000000000000815260040161052e90611072565b60405180910390fd5b61053f610a78565b34600460003373ffffffffffffffffffffffffffffffffffffffff1673ffffffffffffffffffffffffffffffffffffffff168152602001908152602001600020600101600082825461059191906110c1565b92505081905550565b600460003373ffffffffffffffffffffffffffffffffffffffff1673ffffffffffffffffffffffffffffffffffffffff16815260200190815260200160002060040160009054906101000a900460ff161561062a576040517f08c379a000000000000000000000000000000000000000000000000000000000815260040161062190611151565b60405180910390fd5b33600460003373ffffffffffffffffffffffffffffffffffffffff1673ffffffffffffffffffffffffffffffffffffffff16815260200190815260200160002060000160006101000a81548173ffffffffffffffffffffffffffffffffffffffff021916908373ffffffffffffffffffffffffffffffffffffffff1602179055506001600460003373ffffffffffffffffffffffffffffffffffffffff1673ffffffffffffffffffffffffffffffffffffffff16815260200190815260200160002060040160006101000a81548160ff0219169083151502179055506003600081548092919061071990611171565b9190505550565b60008054906101000a900473ffffffffffffffffffffffffffffffffffffffff1673ffffffffffffffffffffffffffffffffffffffff163373ffffffffffffffffffffffffffffffffffffffff16146107ae576040517f08c379a00000000000000000000000000000000000000000000000000000000081526004016107a590611006565b60405180910390fd5b600460008273ffffffffffffffffffffffffffffffffffffffff1673ffffffffffffffffffffffffffffffffffffffff16815260200190815260200160002060040160009054906101000a900460ff1661083d576040517f08c379a000000000000000000000000000000000000000000000000000000000815260040161083490611072565b60405180910390fd5b600254600460008373ffffffffffffffffffffffffffffffffffffffff1673ffffffffffffffffffffffffffffffffffffffff168152602001908152602001600020600101600082825461089191906111b9565b9250508190555050565b60046020528060005260406000206000915090508060000160009054906101000a900473ffffffffffffffffffffffffffffffffffffffff16908060010154908060020154908060030154908060040160009054906101000a900460ff16905085565b60008054906101000a900473ffffffffffffffffffffffffffffffffffffffff1673ffffffffffffffffffffffffffffffffffffffff163373ffffffffffffffffffffffffffffffffffffffff161461098c576040517f08c379a000000000000000000000000000000000000000000000000000000000815260040161098390611006565b60405180910390fd5b600460008373ffffffffffffffffffffffffffffffffffffffff1673ffffffffffffffffffffffffffffffffffffffff16815260200190815260200160002060040160009054906101000a900460ff16610a1b576040517f08c379a0000000000000000000000000000000000000000000000000000000008152600401610a1290611072565b60405180910390fd5b80600460008473ffffffffffffffffffffffffffffffffffffffff1673ffffffffffffffffffffffffffffffffffffffff1681526020019081526020016000206001016000828254610a6d91906111b9565b925050819055505050565b600460003373ffffffffffffffffffffffffffffffffffffffff1673ffffffffffffffffffffffffffffffffffffffff16815260200190815260200160002060040160009054906101000a900460ff16610b07576040517f08c379a0000000000000000000000000000000000000000000000000000000008152600401610afe90611072565b60405180910390fd5b34600460003373ffffffffffffffffffffffffffffffffffffffff1673ffffffffffffffffffffffffffffffffffffffff1681526020019081526020016000206001016000828254610b5991906110c1565b9250508190555060008054906101000a900473ffffffffffffffffffffffffffffffffffffffff1673ffffffffffffffffffffffffffffffffffffffff166108fc349081150290604051600060405180830381858888f19350505050158015610bc6573d6000803e3d6000fd5b50565b6000600460003373ffffffffffffffffffffffffffffffffffffffff1673ffffffffffffffffffffffffffffffffffffffff16815260200190815260200160002060040160009054906101000a900460ff16610c5a576040517f08c379a0000000000000000000000000000000000000000000000000000000008152600401610c5190611072565b60405180910390fd5b81600460003373ffffffffffffffffffffffffffffffffffffffff1673ffffffffffffffffffffffffffffffffffffffff1681526020019081526020016000206001015412159050919050565b6000600460003373ffffffffffffffffffffffffffffffffffffffff1673ffffffffffffffffffffffffffffffffffffffff16815260200190815260200160002060040160009054906101000a900460ff16610d38576040517f08c379a0000000000000000000000000000000000000000000000000000000008152600401610d2f90611072565b60405180910390fd5b600460003373ffffffffffffffffffffffffffffffffffffffff1673ffffffffffffffffffffffffffffffffffffffff16815260200190815260200160002060010154905090565b6000819050919050565b610d9381610d80565b82525050565b6000602082019050610dae6000830184610d8a565b92915050565b600080fd5b600073ffffffffffffffffffffffffffffffffffffffff82169050919050565b6000610de482610db9565b9050919050565b610df481610dd9565b8114610dff57600080fd5b50565b600081359050610e1181610deb565b92915050565b600060208284031215610e2d57610e2c610db4565b5b6000610e3b84828501610e02565b91505092915050565b6000819050919050565b610e5781610e44565b82525050565b6000602082019050610e726000830184610e4e565b92915050565b60008115159050919050565b610e8d81610e78565b82525050565b6000602082019050610ea86000830184610e84565b92915050565b610eb781610dd9565b82525050565b600060a082019050610ed26000830188610eae565b610edf6020830187610e4e565b610eec6040830186610e4e565b610ef96060830185610e4e565b610f066080830184610e84565b9695505050505050565b610f1981610e44565b8114610f2457600080fd5b50565b600081359050610f3681610f10565b92915050565b60008060408385031215610f5357610f52610db4565b5b6000610f6185828601610e02565b9250506020610f7285828601610f27565b9150509250929050565b600060208284031215610f9257610f91610db4565b5b6000610fa084828501610f27565b91505092915050565b600082825260208201905092915050565b7f4e6f742061646d696e0000000000000000000000000000000000000000000000600082015250565b6000610ff0600983610fa9565b9150610ffb82610fba565b602082019050919050565b6000602082019050818103600083015261101f81610fe3565b9050919050565b7f5573657220646f6573206e6f742065786973740a000000000000000000000000600082015250565b600061105c601483610fa9565b915061106782611026565b602082019050919050565b6000602082019050818103600083015261108b8161104f565b9050919050565b7f4e487b7100000000000000000000000000000000000000000000000000000000600052601160045260246000fd5b60006110cc82610e44565b91506110d783610e44565b9250828201905082811215600083121683821260008412151617156110ff576110fe611092565b5b92915050565b7f5573657220616c7265616479206578697374730a000000000000000000000000600082015250565b600061113b601483610fa9565b915061114682611105565b602082019050919050565b6000602082019050818103600083015261116a8161112e565b9050919050565b600061117c82610d80565b91507fffffffffffffffffffffffffffffffffffffffffffffffffffffffffffffffff82036111ae576111ad611092565b5b600182019050919050565b60006111c482610e44565b91506111cf83610e44565b92508282039050818112600084121682821360008512151617156111f6576111f5611092565b5b9291505056fea264697066735822122088ef53ed5b19ab1f62f7af1ff774a8c66021e278d6f8dd6e52e4760f7e71782e64736f6c63430008110033",
  "linkReferences": {},
  "deployedLinkReferences": {}
}