{
  "_format": "hh-sol-artifact-1",
  "contractName": "UserData",
  "sourceName": "contracts/UserData.sol",
  "abi": [
    {
      "inputs": [],
      "stateMutability": "nonpayable",
      "type": "constructor"
    },
    {
      "inputs": [
        {
          "internalType": "address",
          "name": "",
          "type": "address"
        }
      ],
      "name": "Users",
      "outputs": [
        {
          "internalType": "address",
          "name": "wallet",
          "type": "address"
        },
        {
          "internalType": "int256",
          "name": "balance",
          "type": "int256"
        },
        {
          "internalType": "int256",
          "name": "brownie",
          "type": "int256"
        },
        {
          "internalType": "int256",
          "name": "reputation",
          "type": "int256"
        },
        {
          "internalType": "bool",
          "name": "exists",
          "type": "bool"
        }
      ],
      "stateMutability": "view",
      "type": "function"
    },
    {
      "inputs": [],
      "name": "checkMinUserBalanceReq",
      "outputs": [
        {
          "internalType": "bool",
          "name": "",
          "type": "bool"
        }
      ],
      "stateMutability": "view",
      "type": "function"
    },
    {
      "inputs": [
        {
          "internalType": "int256",
          "name": "minUserBalanceReq",
          "type": "int256"
        }
      ],
      "name": "checkMinUserBalanceReq",
      "outputs": [
        {
          "internalType": "bool",
          "name": "",
          "type": "bool"
        }
      ],
      "stateMutability": "view",
      "type": "function"
    },
    {
      "inputs": [
        {
          "internalType": "address",
          "name": "user",
          "type": "address"
        }
      ],
      "name": "checkUserBalance",
      "outputs": [
        {
          "internalType": "int256",
          "name": "",
          "type": "int256"
        }
      ],
      "stateMutability": "view",
      "type": "function"
    },
    {
      "inputs": [],
      "name": "checkUserBalance",
      "outputs": [
        {
          "internalType": "int256",
          "name": "",
          "type": "int256"
        }
      ],
      "stateMutability": "view",
      "type": "function"
    },
    {
      "inputs": [
        {
          "internalType": "address",
          "name": "public_address",
          "type": "address"
        }
      ],
      "name": "createNewUser",
      "outputs": [],
      "stateMutability": "nonpayable",
      "type": "function"
    },
    {
      "inputs": [],
      "name": "deposit",
      "outputs": [],
      "stateMutability": "payable",
      "type": "function"
    },
    {
      "inputs": [],
      "name": "fundUser",
      "outputs": [],
      "stateMutability": "payable",
      "type": "function"
    },
    {
      "inputs": [
        {
          "internalType": "address",
          "name": "user",
          "type": "address"
        }
      ],
      "name": "penalize",
      "outputs": [],
      "stateMutability": "nonpayable",
      "type": "function"
    },
    {
      "inputs": [
        {
          "internalType": "address",
          "name": "user",
          "type": "address"
        },
        {
          "internalType": "int256",
          "name": "penalty",
          "type": "int256"
        }
      ],
      "name": "penalize",
      "outputs": [],
      "stateMutability": "nonpayable",
      "type": "function"
    },
    {
      "inputs": [],
      "name": "userCount",
      "outputs": [
        {
          "internalType": "uint256",
          "name": "",
          "type": "uint256"
        }
      ],
      "stateMutability": "view",
      "type": "function"
    }
  ],
  "bytecode": "0x60806040526000600155600060025560006003553480156200002057600080fd5b50336000806101000a81548173ffffffffffffffffffffffffffffffffffffffff021916908373ffffffffffffffffffffffffffffffffffffffff160217905550620000716200007760201b60201c565b6200033f565b620000a860008054906101000a900473ffffffffffffffffffffffffffffffffffffffff16620000aa60201b60201c565b565b600460008273ffffffffffffffffffffffffffffffffffffffff1673ffffffffffffffffffffffffffffffffffffffff16815260200190815260200160002060040160009054906101000a900460ff16156200013d576040517f08c379a0000000000000000000000000000000000000000000000000000000008152600401620001349062000297565b60405180910390fd5b80600460008373ffffffffffffffffffffffffffffffffffffffff1673ffffffffffffffffffffffffffffffffffffffff16815260200190815260200160002060000160006101000a81548173ffffffffffffffffffffffffffffffffffffffff021916908373ffffffffffffffffffffffffffffffffffffffff1602179055506001600460008373ffffffffffffffffffffffffffffffffffffffff1673ffffffffffffffffffffffffffffffffffffffff16815260200190815260200160002060040160006101000a81548160ff021916908315150217905550600360008154809291906200022e90620002f2565b919050555050565b600082825260208201905092915050565b7f5573657220616c7265616479206578697374730a000000000000000000000000600082015250565b60006200027f60148362000236565b91506200028c8262000247565b602082019050919050565b60006020820190508181036000830152620002b28162000270565b9050919050565b7f4e487b7100000000000000000000000000000000000000000000000000000000600052601160045260246000fd5b6000819050919050565b6000620002ff82620002e8565b91507fffffffffffffffffffffffffffffffffffffffffffffffffffffffffffffffff8203620003345762000333620002b9565b5b600182019050919050565b61102e806200034f6000396000f3fe60806040526004361061009c5760003560e01c806378d97c941161006457806378d97c941461016757806399b956a014610190578063bc97f20b146101d1578063d0e30db0146101fa578063d55536e914610204578063dfe15719146102415761009c565b806307973ccf146100a15780630a9bfef5146100cc57806317633dcf146101095780631fd7af871461013457806359647dfb1461013e575b600080fd5b3480156100ad57600080fd5b506100b661026c565b6040516100c39190610c01565b60405180910390f35b3480156100d857600080fd5b506100f360048036038101906100ee9190610c7f565b610272565b6040516101009190610cc5565b60405180910390f35b34801561011557600080fd5b5061011e61034d565b60405161012b9190610cfb565b60405180910390f35b61013c61042b565b005b34801561014a57600080fd5b5061016560048036038101906101609190610c7f565b61051d565b005b34801561017357600080fd5b5061018e60048036038101906101899190610c7f565b6106a4565b005b34801561019c57600080fd5b506101b760048036038101906101b29190610c7f565b610791565b6040516101c8959493929190610d25565b60405180910390f35b3480156101dd57600080fd5b506101f860048036038101906101f39190610da4565b6107f4565b005b6102026108e0565b005b34801561021057600080fd5b5061022b60048036038101906102269190610de4565b610a31565b6040516102389190610cfb565b60405180910390f35b34801561024d57600080fd5b50610256610b0f565b6040516102639190610cc5565b60405180910390f35b60035481565b6000600460008373ffffffffffffffffffffffffffffffffffffffff1673ffffffffffffffffffffffffffffffffffffffff16815260200190815260200160002060040160009054906101000a900460ff16610303576040517f08c379a00000000000000000000000000000000000000000000000000000000081526004016102fa90610e6e565b60405180910390fd5b600460008373ffffffffffffffffffffffffffffffffffffffff1673ffffffffffffffffffffffffffffffffffffffff168152602001908152602001600020600101549050919050565b6000600460003373ffffffffffffffffffffffffffffffffffffffff1673ffffffffffffffffffffffffffffffffffffffff16815260200190815260200160002060040160009054906101000a900460ff166103de576040517f08c379a00000000000000000000000000000000000000000000000000000000081526004016103d590610e6e565b60405180910390fd5b600154600460003373ffffffffffffffffffffffffffffffffffffffff1673ffffffffffffffffffffffffffffffffffffffff168152602001908152602001600020600101541215905090565b600460003373ffffffffffffffffffffffffffffffffffffffff1673ffffffffffffffffffffffffffffffffffffffff16815260200190815260200160002060040160009054906101000a900460ff166104ba576040517f08c379a00000000000000000000000000000000000000000000000000000000081526004016104b190610e6e565b60405180910390fd5b6104c26108e0565b34600460003373ffffffffffffffffffffffffffffffffffffffff1673ffffffffffffffffffffffffffffffffffffffff16815260200190815260200160002060010160008282546105149190610ebd565b92505081905550565b600460008273ffffffffffffffffffffffffffffffffffffffff1673ffffffffffffffffffffffffffffffffffffffff16815260200190815260200160002060040160009054906101000a900460ff16156105ad576040517f08c379a00000000000000000000000000000000000000000000000000000000081526004016105a490610f4d565b60405180910390fd5b80600460008373ffffffffffffffffffffffffffffffffffffffff1673ffffffffffffffffffffffffffffffffffffffff16815260200190815260200160002060000160006101000a81548173ffffffffffffffffffffffffffffffffffffffff021916908373ffffffffffffffffffffffffffffffffffffffff1602179055506001600460008373ffffffffffffffffffffffffffffffffffffffff1673ffffffffffffffffffffffffffffffffffffffff16815260200190815260200160002060040160006101000a81548160ff0219169083151502179055506003600081548092919061069c90610f6d565b919050555050565b600460008273ffffffffffffffffffffffffffffffffffffffff1673ffffffffffffffffffffffffffffffffffffffff16815260200190815260200160002060040160009054906101000a900460ff16610733576040517f08c379a000000000000000000000000000000000000000000000000000000000815260040161072a90610e6e565b60405180910390fd5b600254600460008373ffffffffffffffffffffffffffffffffffffffff1673ffffffffffffffffffffffffffffffffffffffff16815260200190815260200160002060010160008282546107879190610fb5565b9250508190555050565b60046020528060005260406000206000915090508060000160009054906101000a900473ffffffffffffffffffffffffffffffffffffffff16908060010154908060020154908060030154908060040160009054906101000a900460ff16905085565b600460008373ffffffffffffffffffffffffffffffffffffffff1673ffffffffffffffffffffffffffffffffffffffff16815260200190815260200160002060040160009054906101000a900460ff16610883576040517f08c379a000000000000000000000000000000000000000000000000000000000815260040161087a90610e6e565b60405180910390fd5b80600460008473ffffffffffffffffffffffffffffffffffffffff1673ffffffffffffffffffffffffffffffffffffffff16815260200190815260200160002060010160008282546108d59190610fb5565b925050819055505050565b600460003373ffffffffffffffffffffffffffffffffffffffff1673ffffffffffffffffffffffffffffffffffffffff16815260200190815260200160002060040160009054906101000a900460ff1661096f576040517f08c379a000000000000000000000000000000000000000000000000000000000815260040161096690610e6e565b60405180910390fd5b34600460003373ffffffffffffffffffffffffffffffffffffffff1673ffffffffffffffffffffffffffffffffffffffff16815260200190815260200160002060010160008282546109c19190610ebd565b9250508190555060008054906101000a900473ffffffffffffffffffffffffffffffffffffffff1673ffffffffffffffffffffffffffffffffffffffff166108fc349081150290604051600060405180830381858888f19350505050158015610a2e573d6000803e3d6000fd5b50565b6000600460003373ffffffffffffffffffffffffffffffffffffffff1673ffffffffffffffffffffffffffffffffffffffff16815260200190815260200160002060040160009054906101000a900460ff16610ac2576040517f08c379a0000000000000000000000000000000000000000000000000000000008152600401610ab990610e6e565b60405180910390fd5b81600460003373ffffffffffffffffffffffffffffffffffffffff1673ffffffffffffffffffffffffffffffffffffffff1681526020019081526020016000206001015412159050919050565b6000600460003373ffffffffffffffffffffffffffffffffffffffff1673ffffffffffffffffffffffffffffffffffffffff16815260200190815260200160002060040160009054906101000a900460ff16610ba0576040517f08c379a0000000000000000000000000000000000000000000000000000000008152600401610b9790610e6e565b60405180910390fd5b600460003373ffffffffffffffffffffffffffffffffffffffff1673ffffffffffffffffffffffffffffffffffffffff16815260200190815260200160002060010154905090565b6000819050919050565b610bfb81610be8565b82525050565b6000602082019050610c166000830184610bf2565b92915050565b600080fd5b600073ffffffffffffffffffffffffffffffffffffffff82169050919050565b6000610c4c82610c21565b9050919050565b610c5c81610c41565b8114610c6757600080fd5b50565b600081359050610c7981610c53565b92915050565b600060208284031215610c9557610c94610c1c565b5b6000610ca384828501610c6a565b91505092915050565b6000819050919050565b610cbf81610cac565b82525050565b6000602082019050610cda6000830184610cb6565b92915050565b60008115159050919050565b610cf581610ce0565b82525050565b6000602082019050610d106000830184610cec565b92915050565b610d1f81610c41565b82525050565b600060a082019050610d3a6000830188610d16565b610d476020830187610cb6565b610d546040830186610cb6565b610d616060830185610cb6565b610d6e6080830184610cec565b9695505050505050565b610d8181610cac565b8114610d8c57600080fd5b50565b600081359050610d9e81610d78565b92915050565b60008060408385031215610dbb57610dba610c1c565b5b6000610dc985828601610c6a565b9250506020610dda85828601610d8f565b9150509250929050565b600060208284031215610dfa57610df9610c1c565b5b6000610e0884828501610d8f565b91505092915050565b600082825260208201905092915050565b7f5573657220646f6573206e6f742065786973740a000000000000000000000000600082015250565b6000610e58601483610e11565b9150610e6382610e22565b602082019050919050565b60006020820190508181036000830152610e8781610e4b565b9050919050565b7f4e487b7100000000000000000000000000000000000000000000000000000000600052601160045260246000fd5b6000610ec882610cac565b9150610ed383610cac565b925082820190508281121560008312168382126000841215161715610efb57610efa610e8e565b5b92915050565b7f5573657220616c7265616479206578697374730a000000000000000000000000600082015250565b6000610f37601483610e11565b9150610f4282610f01565b602082019050919050565b60006020820190508181036000830152610f6681610f2a565b9050919050565b6000610f7882610be8565b91507fffffffffffffffffffffffffffffffffffffffffffffffffffffffffffffffff8203610faa57610fa9610e8e565b5b600182019050919050565b6000610fc082610cac565b9150610fcb83610cac565b9250828203905081811260008412168282136000851215161715610ff257610ff1610e8e565b5b9291505056fea26469706673582212201550395be888d25f3ba7ea626f13ca63caacb48154ce7f85f919ad6b1988476d64736f6c63430008110033",
  "linkReferences": {},
  "deployedLinkReferences": {}
}