{
  "_format": "hh-sol-artifact-1",
  "contractName": "UserData",
  "sourceName": "contracts/UserData.sol",
  "abi": [
    {
      "inputs": [],
      "stateMutability": "nonpayable",
      "type": "constructor"
    },
    {
      "inputs": [
        {
          "internalType": "address",
          "name": "",
          "type": "address"
        }
      ],
      "name": "Users",
      "outputs": [
        {
          "internalType": "address",
          "name": "wallet",
          "type": "address"
        },
        {
          "internalType": "int256",
          "name": "balance",
          "type": "int256"
        },
        {
          "internalType": "int256",
          "name": "brownie",
          "type": "int256"
        },
        {
          "internalType": "int256",
          "name": "reputation",
          "type": "int256"
        },
        {
          "internalType": "bool",
          "name": "exists",
          "type": "bool"
        }
      ],
      "stateMutability": "view",
      "type": "function"
    },
    {
      "inputs": [],
      "name": "checkMinUserBalanceReq",
      "outputs": [
        {
          "internalType": "bool",
          "name": "",
          "type": "bool"
        }
      ],
      "stateMutability": "view",
      "type": "function"
    },
    {
      "inputs": [
        {
          "internalType": "int256",
          "name": "minUserBalanceReq",
          "type": "int256"
        }
      ],
      "name": "checkMinUserBalanceReq",
      "outputs": [
        {
          "internalType": "bool",
          "name": "",
          "type": "bool"
        }
      ],
      "stateMutability": "view",
      "type": "function"
    },
    {
      "inputs": [
        {
          "internalType": "address",
          "name": "user",
          "type": "address"
        }
      ],
      "name": "checkUserBalance",
      "outputs": [
        {
          "internalType": "int256",
          "name": "",
          "type": "int256"
        }
      ],
      "stateMutability": "view",
      "type": "function"
    },
    {
      "inputs": [],
      "name": "checkUserBalance",
      "outputs": [
        {
          "internalType": "int256",
          "name": "",
          "type": "int256"
        }
      ],
      "stateMutability": "view",
      "type": "function"
    },
    {
      "inputs": [
        {
          "internalType": "address",
          "name": "public_address",
          "type": "address"
        }
      ],
      "name": "createNewUser",
      "outputs": [],
      "stateMutability": "nonpayable",
      "type": "function"
    },
    {
      "inputs": [],
      "name": "deposit",
      "outputs": [],
      "stateMutability": "payable",
      "type": "function"
    },
    {
      "inputs": [],
      "name": "fundUser",
      "outputs": [],
      "stateMutability": "payable",
      "type": "function"
    },
    {
      "inputs": [
        {
          "internalType": "address",
          "name": "user",
          "type": "address"
        }
      ],
      "name": "penalize",
      "outputs": [],
      "stateMutability": "nonpayable",
      "type": "function"
    },
    {
      "inputs": [
        {
          "internalType": "address",
          "name": "user",
          "type": "address"
        },
        {
          "internalType": "int256",
          "name": "penalty",
          "type": "int256"
        }
      ],
      "name": "penalize",
      "outputs": [],
      "stateMutability": "nonpayable",
      "type": "function"
    },
    {
      "inputs": [],
      "name": "userCount",
      "outputs": [
        {
          "internalType": "uint256",
          "name": "",
          "type": "uint256"
        }
      ],
      "stateMutability": "view",
      "type": "function"
    },
    {
      "stateMutability": "payable",
      "type": "receive"
    }
  ],
  "bytecode": "0x60806040526000600155600060025560006003553480156200002057600080fd5b50336000806101000a81548173ffffffffffffffffffffffffffffffffffffffff021916908373ffffffffffffffffffffffffffffffffffffffff160217905550620000716200007760201b60201c565b6200033f565b620000a860008054906101000a900473ffffffffffffffffffffffffffffffffffffffff16620000aa60201b60201c565b565b600460008273ffffffffffffffffffffffffffffffffffffffff1673ffffffffffffffffffffffffffffffffffffffff16815260200190815260200160002060040160009054906101000a900460ff16156200013d576040517f08c379a0000000000000000000000000000000000000000000000000000000008152600401620001349062000297565b60405180910390fd5b80600460008373ffffffffffffffffffffffffffffffffffffffff1673ffffffffffffffffffffffffffffffffffffffff16815260200190815260200160002060000160006101000a81548173ffffffffffffffffffffffffffffffffffffffff021916908373ffffffffffffffffffffffffffffffffffffffff1602179055506001600460008373ffffffffffffffffffffffffffffffffffffffff1673ffffffffffffffffffffffffffffffffffffffff16815260200190815260200160002060040160006101000a81548160ff021916908315150217905550600360008154809291906200022e90620002f2565b919050555050565b600082825260208201905092915050565b7f5573657220616c7265616479206578697374730a000000000000000000000000600082015250565b60006200027f60148362000236565b91506200028c8262000247565b602082019050919050565b60006020820190508181036000830152620002b28162000270565b9050919050565b7f4e487b7100000000000000000000000000000000000000000000000000000000600052601160045260246000fd5b6000819050919050565b6000620002ff82620002e8565b91507fffffffffffffffffffffffffffffffffffffffffffffffffffffffffffffffff8203620003345762000333620002b9565b5b600182019050919050565b611187806200034f6000396000f3fe6080604052600436106100a05760003560e01c806378d97c941161006457806378d97c94146102c057806399b956a0146102e9578063bc97f20b1461032a578063d0e30db014610353578063d55536e91461035d578063dfe157191461039a576101f5565b806307973ccf146101fa5780630a9bfef51461022557806317633dcf146102625780631fd7af871461028d57806359647dfb14610297576101f5565b366101f557600460003373ffffffffffffffffffffffffffffffffffffffff1673ffffffffffffffffffffffffffffffffffffffff16815260200190815260200160002060040160009054906101000a900460ff16610134576040517f08c379a000000000000000000000000000000000000000000000000000000000815260040161012b90610d9e565b60405180910390fd5b34600460003373ffffffffffffffffffffffffffffffffffffffff1673ffffffffffffffffffffffffffffffffffffffff16815260200190815260200160002060010160008282546101869190610df7565b9250508190555060008054906101000a900473ffffffffffffffffffffffffffffffffffffffff1673ffffffffffffffffffffffffffffffffffffffff166108fc349081150290604051600060405180830381858888f193505050501580156101f3573d6000803e3d6000fd5b005b600080fd5b34801561020657600080fd5b5061020f6103c5565b60405161021c9190610e54565b60405180910390f35b34801561023157600080fd5b5061024c60048036038101906102479190610ed2565b6103cb565b6040516102599190610f0e565b60405180910390f35b34801561026e57600080fd5b506102776104a6565b6040516102849190610f44565b60405180910390f35b610295610584565b005b3480156102a357600080fd5b506102be60048036038101906102b99190610ed2565b610676565b005b3480156102cc57600080fd5b506102e760048036038101906102e29190610ed2565b6107fd565b005b3480156102f557600080fd5b50610310600480360381019061030b9190610ed2565b6108ea565b604051610321959493929190610f6e565b60405180910390f35b34801561033657600080fd5b50610351600480360381019061034c9190610fed565b61094d565b005b61035b610a39565b005b34801561036957600080fd5b50610384600480360381019061037f919061102d565b610b8a565b6040516103919190610f44565b60405180910390f35b3480156103a657600080fd5b506103af610c68565b6040516103bc9190610f0e565b60405180910390f35b60035481565b6000600460008373ffffffffffffffffffffffffffffffffffffffff1673ffffffffffffffffffffffffffffffffffffffff16815260200190815260200160002060040160009054906101000a900460ff1661045c576040517f08c379a000000000000000000000000000000000000000000000000000000000815260040161045390610d9e565b60405180910390fd5b600460008373ffffffffffffffffffffffffffffffffffffffff1673ffffffffffffffffffffffffffffffffffffffff168152602001908152602001600020600101549050919050565b6000600460003373ffffffffffffffffffffffffffffffffffffffff1673ffffffffffffffffffffffffffffffffffffffff16815260200190815260200160002060040160009054906101000a900460ff16610537576040517f08c379a000000000000000000000000000000000000000000000000000000000815260040161052e90610d9e565b60405180910390fd5b600154600460003373ffffffffffffffffffffffffffffffffffffffff1673ffffffffffffffffffffffffffffffffffffffff168152602001908152602001600020600101541215905090565b600460003373ffffffffffffffffffffffffffffffffffffffff1673ffffffffffffffffffffffffffffffffffffffff16815260200190815260200160002060040160009054906101000a900460ff16610613576040517f08c379a000000000000000000000000000000000000000000000000000000000815260040161060a90610d9e565b60405180910390fd5b61061b610a39565b34600460003373ffffffffffffffffffffffffffffffffffffffff1673ffffffffffffffffffffffffffffffffffffffff168152602001908152602001600020600101600082825461066d9190610df7565b92505081905550565b600460008273ffffffffffffffffffffffffffffffffffffffff1673ffffffffffffffffffffffffffffffffffffffff16815260200190815260200160002060040160009054906101000a900460ff1615610706576040517f08c379a00000000000000000000000000000000000000000000000000000000081526004016106fd906110a6565b60405180910390fd5b80600460008373ffffffffffffffffffffffffffffffffffffffff1673ffffffffffffffffffffffffffffffffffffffff16815260200190815260200160002060000160006101000a81548173ffffffffffffffffffffffffffffffffffffffff021916908373ffffffffffffffffffffffffffffffffffffffff1602179055506001600460008373ffffffffffffffffffffffffffffffffffffffff1673ffffffffffffffffffffffffffffffffffffffff16815260200190815260200160002060040160006101000a81548160ff021916908315150217905550600360008154809291906107f5906110c6565b919050555050565b600460008273ffffffffffffffffffffffffffffffffffffffff1673ffffffffffffffffffffffffffffffffffffffff16815260200190815260200160002060040160009054906101000a900460ff1661088c576040517f08c379a000000000000000000000000000000000000000000000000000000000815260040161088390610d9e565b60405180910390fd5b600254600460008373ffffffffffffffffffffffffffffffffffffffff1673ffffffffffffffffffffffffffffffffffffffff16815260200190815260200160002060010160008282546108e0919061110e565b9250508190555050565b60046020528060005260406000206000915090508060000160009054906101000a900473ffffffffffffffffffffffffffffffffffffffff16908060010154908060020154908060030154908060040160009054906101000a900460ff16905085565b600460008373ffffffffffffffffffffffffffffffffffffffff1673ffffffffffffffffffffffffffffffffffffffff16815260200190815260200160002060040160009054906101000a900460ff166109dc576040517f08c379a00000000000000000000000000000000000000000000000000000000081526004016109d390610d9e565b60405180910390fd5b80600460008473ffffffffffffffffffffffffffffffffffffffff1673ffffffffffffffffffffffffffffffffffffffff1681526020019081526020016000206001016000828254610a2e919061110e565b925050819055505050565b600460003373ffffffffffffffffffffffffffffffffffffffff1673ffffffffffffffffffffffffffffffffffffffff16815260200190815260200160002060040160009054906101000a900460ff16610ac8576040517f08c379a0000000000000000000000000000000000000000000000000000000008152600401610abf90610d9e565b60405180910390fd5b34600460003373ffffffffffffffffffffffffffffffffffffffff1673ffffffffffffffffffffffffffffffffffffffff1681526020019081526020016000206001016000828254610b1a9190610df7565b9250508190555060008054906101000a900473ffffffffffffffffffffffffffffffffffffffff1673ffffffffffffffffffffffffffffffffffffffff166108fc349081150290604051600060405180830381858888f19350505050158015610b87573d6000803e3d6000fd5b50565b6000600460003373ffffffffffffffffffffffffffffffffffffffff1673ffffffffffffffffffffffffffffffffffffffff16815260200190815260200160002060040160009054906101000a900460ff16610c1b576040517f08c379a0000000000000000000000000000000000000000000000000000000008152600401610c1290610d9e565b60405180910390fd5b81600460003373ffffffffffffffffffffffffffffffffffffffff1673ffffffffffffffffffffffffffffffffffffffff1681526020019081526020016000206001015412159050919050565b6000600460003373ffffffffffffffffffffffffffffffffffffffff1673ffffffffffffffffffffffffffffffffffffffff16815260200190815260200160002060040160009054906101000a900460ff16610cf9576040517f08c379a0000000000000000000000000000000000000000000000000000000008152600401610cf090610d9e565b60405180910390fd5b600460003373ffffffffffffffffffffffffffffffffffffffff1673ffffffffffffffffffffffffffffffffffffffff16815260200190815260200160002060010154905090565b600082825260208201905092915050565b7f5573657220646f6573206e6f742065786973740a000000000000000000000000600082015250565b6000610d88601483610d41565b9150610d9382610d52565b602082019050919050565b60006020820190508181036000830152610db781610d7b565b9050919050565b6000819050919050565b7f4e487b7100000000000000000000000000000000000000000000000000000000600052601160045260246000fd5b6000610e0282610dbe565b9150610e0d83610dbe565b925082820190508281121560008312168382126000841215161715610e3557610e34610dc8565b5b92915050565b6000819050919050565b610e4e81610e3b565b82525050565b6000602082019050610e696000830184610e45565b92915050565b600080fd5b600073ffffffffffffffffffffffffffffffffffffffff82169050919050565b6000610e9f82610e74565b9050919050565b610eaf81610e94565b8114610eba57600080fd5b50565b600081359050610ecc81610ea6565b92915050565b600060208284031215610ee857610ee7610e6f565b5b6000610ef684828501610ebd565b91505092915050565b610f0881610dbe565b82525050565b6000602082019050610f236000830184610eff565b92915050565b60008115159050919050565b610f3e81610f29565b82525050565b6000602082019050610f596000830184610f35565b92915050565b610f6881610e94565b82525050565b600060a082019050610f836000830188610f5f565b610f906020830187610eff565b610f9d6040830186610eff565b610faa6060830185610eff565b610fb76080830184610f35565b9695505050505050565b610fca81610dbe565b8114610fd557600080fd5b50565b600081359050610fe781610fc1565b92915050565b6000806040838503121561100457611003610e6f565b5b600061101285828601610ebd565b925050602061102385828601610fd8565b9150509250929050565b60006020828403121561104357611042610e6f565b5b600061105184828501610fd8565b91505092915050565b7f5573657220616c7265616479206578697374730a000000000000000000000000600082015250565b6000611090601483610d41565b915061109b8261105a565b602082019050919050565b600060208201905081810360008301526110bf81611083565b9050919050565b60006110d182610e3b565b91507fffffffffffffffffffffffffffffffffffffffffffffffffffffffffffffffff820361110357611102610dc8565b5b600182019050919050565b600061111982610dbe565b915061112483610dbe565b925082820390508181126000841216828213600085121516171561114b5761114a610dc8565b5b9291505056fea2646970667358221220529ab3061c5911205c0de1a539d8363226c88d017250e22bdee012b6712b049e64736f6c63430008110033",
  "linkReferences": {},
  "deployedLinkReferences": {}
}